{
  "address": "0x4bBFE3C251f4B04Daa2B8C820Bb60B4Ed698b721",
  "abi": [
    {
      "inputs": [],
      "name": "AccessControlBadConfirmation",
      "type": "error"
    },
    {
      "inputs": [
        {
          "internalType": "address",
          "name": "account",
          "type": "address"
        },
        {
          "internalType": "bytes32",
          "name": "neededRole",
          "type": "bytes32"
        }
      ],
      "name": "AccessControlUnauthorizedAccount",
      "type": "error"
    },
    {
      "inputs": [],
      "name": "InvalidInitialization",
      "type": "error"
    },
    {
      "inputs": [],
      "name": "NotInitializing",
      "type": "error"
    },
    {
      "anonymous": false,
      "inputs": [
        {
          "indexed": true,
          "internalType": "address",
          "name": "wallet",
          "type": "address"
        },
        {
          "indexed": false,
          "internalType": "uint256",
          "name": "depositId",
          "type": "uint256"
        }
      ],
      "name": "CreateWallet",
      "type": "event"
    },
    {
      "anonymous": false,
      "inputs": [
        {
          "indexed": false,
          "internalType": "uint64",
          "name": "version",
          "type": "uint64"
        }
      ],
      "name": "Initialized",
      "type": "event"
    },
    {
      "anonymous": false,
      "inputs": [
        {
          "indexed": true,
          "internalType": "bytes32",
          "name": "role",
          "type": "bytes32"
        },
        {
          "indexed": true,
          "internalType": "bytes32",
          "name": "previousAdminRole",
          "type": "bytes32"
        },
        {
          "indexed": true,
          "internalType": "bytes32",
          "name": "newAdminRole",
          "type": "bytes32"
        }
      ],
      "name": "RoleAdminChanged",
      "type": "event"
    },
    {
      "anonymous": false,
      "inputs": [
        {
          "indexed": true,
          "internalType": "bytes32",
          "name": "role",
          "type": "bytes32"
        },
        {
          "indexed": true,
          "internalType": "address",
          "name": "account",
          "type": "address"
        },
        {
          "indexed": true,
          "internalType": "address",
          "name": "sender",
          "type": "address"
        }
      ],
      "name": "RoleGranted",
      "type": "event"
    },
    {
      "anonymous": false,
      "inputs": [
        {
          "indexed": true,
          "internalType": "bytes32",
          "name": "role",
          "type": "bytes32"
        },
        {
          "indexed": true,
          "internalType": "address",
          "name": "account",
          "type": "address"
        },
        {
          "indexed": true,
          "internalType": "address",
          "name": "sender",
          "type": "address"
        }
      ],
      "name": "RoleRevoked",
      "type": "event"
    },
    {
      "anonymous": false,
      "inputs": [
        {
          "indexed": true,
          "internalType": "address",
          "name": "wallet",
          "type": "address"
        },
        {
          "indexed": true,
          "internalType": "address",
          "name": "token",
          "type": "address"
        },
        {
          "indexed": false,
          "internalType": "uint256",
          "name": "amount",
          "type": "uint256"
        },
        {
          "indexed": false,
          "internalType": "uint256",
          "name": "amountOut",
          "type": "uint256"
        }
      ],
      "name": "Withdraw",
      "type": "event"
    },
    {
      "inputs": [],
      "name": "BRIDGE_ROLE",
      "outputs": [
        {
          "internalType": "bytes32",
          "name": "",
          "type": "bytes32"
        }
      ],
      "stateMutability": "view",
      "type": "function"
    },
    {
      "inputs": [],
      "name": "DEFAULT_ADMIN_ROLE",
      "outputs": [
        {
          "internalType": "bytes32",
          "name": "",
          "type": "bytes32"
        }
      ],
      "stateMutability": "view",
      "type": "function"
    },
    {
      "inputs": [],
      "name": "DOMAIN_LOGIN",
      "outputs": [
        {
          "internalType": "bytes32",
          "name": "",
          "type": "bytes32"
        }
      ],
      "stateMutability": "view",
      "type": "function"
    },
    {
      "inputs": [],
      "name": "EIP712_DOMAIN_TYPEHASH",
      "outputs": [
        {
          "internalType": "bytes32",
          "name": "",
          "type": "bytes32"
        }
      ],
      "stateMutability": "view",
      "type": "function"
    },
    {
      "inputs": [],
      "name": "ENTRYPOINT_VERSION",
      "outputs": [
        {
          "internalType": "string",
          "name": "",
          "type": "string"
        }
      ],
      "stateMutability": "view",
      "type": "function"
    },
    {
      "inputs": [],
      "name": "LOGIN_CODE",
      "outputs": [
        {
          "internalType": "bytes32",
          "name": "",
          "type": "bytes32"
        }
      ],
      "stateMutability": "view",
      "type": "function"
    },
    {
      "inputs": [],
      "name": "basicImplementation",
      "outputs": [
        {
          "internalType": "address",
          "name": "",
          "type": "address"
        }
      ],
      "stateMutability": "view",
      "type": "function"
    },
    {
      "inputs": [
        {
          "internalType": "address",
          "name": "owner",
          "type": "address"
        },
        {
          "internalType": "uint256",
          "name": "depositId",
          "type": "uint256"
        }
      ],
      "name": "createRefundWallet",
      "outputs": [
        {
          "internalType": "address",
          "name": "wallet",
          "type": "address"
        }
      ],
      "stateMutability": "nonpayable",
      "type": "function"
    },
    {
      "inputs": [
        {
          "components": [
            {
              "internalType": "address",
              "name": "owner",
              "type": "address"
            },
            {
              "internalType": "uint256",
              "name": "validAfter",
              "type": "uint256"
            },
            {
              "internalType": "uint256",
              "name": "validUntil",
              "type": "uint256"
            },
            {
              "components": [
                {
                  "internalType": "bytes32",
                  "name": "r",
                  "type": "bytes32"
                },
                {
                  "internalType": "bytes32",
                  "name": "s",
                  "type": "bytes32"
                },
                {
                  "internalType": "uint256",
                  "name": "v",
                  "type": "uint256"
                }
              ],
              "internalType": "struct SignatureRSV",
              "name": "rsv",
              "type": "tuple"
            }
          ],
          "internalType": "struct RefundWalletEntrypoint.LoginData",
          "name": "data",
          "type": "tuple"
        },
        {
          "internalType": "uint256",
          "name": "index",
          "type": "uint256"
        }
      ],
      "name": "getReceipt",
      "outputs": [
        {
          "internalType": "address",
          "name": "wallet",
          "type": "address"
        }
      ],
      "stateMutability": "view",
      "type": "function"
    },
    {
      "inputs": [
        {
          "internalType": "bytes32",
          "name": "role",
          "type": "bytes32"
        }
      ],
      "name": "getRoleAdmin",
      "outputs": [
        {
          "internalType": "bytes32",
          "name": "",
          "type": "bytes32"
        }
      ],
      "stateMutability": "view",
      "type": "function"
    },
    {
      "inputs": [
        {
          "internalType": "bytes32",
          "name": "role",
          "type": "bytes32"
        },
        {
          "internalType": "address",
          "name": "account",
          "type": "address"
        }
      ],
      "name": "grantRole",
      "outputs": [],
      "stateMutability": "nonpayable",
      "type": "function"
    },
    {
      "inputs": [
        {
          "internalType": "bytes32",
          "name": "role",
          "type": "bytes32"
        },
        {
          "internalType": "address",
          "name": "account",
          "type": "address"
        }
      ],
      "name": "hasRole",
      "outputs": [
        {
          "internalType": "bool",
          "name": "",
          "type": "bool"
        }
      ],
      "stateMutability": "view",
      "type": "function"
    },
    {
      "inputs": [
        {
          "internalType": "address",
          "name": "_thornUSD",
          "type": "address"
        },
        {
          "internalType": "address",
          "name": "_whisprMinter",
          "type": "address"
        },
        {
          "internalType": "address",
          "name": "_stableSwapRouter",
          "type": "address"
        },
        {
          "internalType": "address",
          "name": "_basicImplementation",
          "type": "address"
        }
      ],
      "name": "initialize",
      "outputs": [],
      "stateMutability": "nonpayable",
      "type": "function"
    },
    {
      "inputs": [
        {
          "components": [
            {
              "internalType": "address",
              "name": "owner",
              "type": "address"
            },
            {
              "internalType": "uint256",
              "name": "validAfter",
              "type": "uint256"
            },
            {
              "internalType": "uint256",
              "name": "validUntil",
              "type": "uint256"
            },
            {
              "components": [
                {
                  "internalType": "bytes32",
                  "name": "r",
                  "type": "bytes32"
                },
                {
                  "internalType": "bytes32",
                  "name": "s",
                  "type": "bytes32"
                },
                {
                  "internalType": "uint256",
                  "name": "v",
                  "type": "uint256"
                }
              ],
              "internalType": "struct SignatureRSV",
              "name": "rsv",
              "type": "tuple"
            }
          ],
          "internalType": "struct RefundWalletEntrypoint.LoginData",
          "name": "data",
          "type": "tuple"
        }
      ],
      "name": "login",
      "outputs": [
        {
          "internalType": "uint256",
          "name": "total",
          "type": "uint256"
        }
      ],
      "stateMutability": "view",
      "type": "function"
    },
    {
      "inputs": [
        {
          "internalType": "bytes32",
          "name": "role",
          "type": "bytes32"
        },
        {
          "internalType": "address",
          "name": "callerConfirmation",
          "type": "address"
        }
      ],
      "name": "renounceRole",
      "outputs": [],
      "stateMutability": "nonpayable",
      "type": "function"
    },
    {
      "inputs": [
        {
          "internalType": "bytes32",
          "name": "role",
          "type": "bytes32"
        },
        {
          "internalType": "address",
          "name": "account",
          "type": "address"
        }
      ],
      "name": "revokeRole",
      "outputs": [],
      "stateMutability": "nonpayable",
      "type": "function"
    },
    {
      "inputs": [],
      "name": "stableSwapRouter",
      "outputs": [
        {
          "internalType": "address",
          "name": "",
          "type": "address"
        }
      ],
      "stateMutability": "view",
      "type": "function"
    },
    {
      "inputs": [
        {
          "internalType": "bytes4",
          "name": "interfaceId",
          "type": "bytes4"
        }
      ],
      "name": "supportsInterface",
      "outputs": [
        {
          "internalType": "bool",
          "name": "",
          "type": "bool"
        }
      ],
      "stateMutability": "view",
      "type": "function"
    },
    {
      "inputs": [],
      "name": "thornBridge",
      "outputs": [
        {
          "internalType": "address",
          "name": "",
          "type": "address"
        }
      ],
      "stateMutability": "view",
      "type": "function"
    },
    {
      "inputs": [],
      "name": "thornUSD",
      "outputs": [
        {
          "internalType": "address",
          "name": "",
          "type": "address"
        }
      ],
      "stateMutability": "view",
      "type": "function"
    },
    {
      "inputs": [],
      "name": "whisprMinter",
      "outputs": [
        {
          "internalType": "address",
          "name": "",
          "type": "address"
        }
      ],
      "stateMutability": "view",
      "type": "function"
    }
  ],
  "transactionHash": "0x9aac318ebeed54efbaa2ce27ad1f0ea1c7854514c2df8df957eb619ad182b8e6",
  "args": [],
  "numDeployments": 1,
  "solcInputHash": "928a5dbc3aed5b9e004d4e4ef0af5a09",
  "bytecode": "0x60808060405234610016576111ef908161001c8239f35b600080fdfe6080604052600436101561001257600080fd5b60003560e01c806301ffc9a7146101675780631015390e14610162578063222028201461015d578063248a9ca3146101585780632f2ff15d1461015357806336568abe1461014e57806338c99117146101495780637a31da481461014457806386f204151461013f57806391d148541461013a578063971c75b014610135578063a217fddf14610130578063b5bfddea1461012b578063c7977be714610126578063d40bab6c14610121578063d547741f1461011c578063da45280214610117578063daf0dfc814610112578063e524740c1461010d578063f3bb6e2d146101085763f8c8765e1461010357600080fd5b610a76565b610a4d565b610a24565b6109fb565b6109d2565b610983565b6106ef565b6106d1565b610696565b61067a565b61065c565b6105f9565b6105d0565b610561565b610463565b610418565b6103c7565b61037a565b61033f565b6101d3565b346101bd5760203660031901126101bd5760043563ffffffff60e01b81168091036101bd57602090637965db0b60e01b81149081156101ac575b506040519015158152f35b6301ffc9a760e01b149050386101a1565b600080fd5b60c09060031901126101bd57600490565b346101bd5760c03660031901126101bd576101ed366101c2565b602060006102df6008546102956102a161020687610bd2565b604080517f19873d119b26fb78d9335906b6a2e79c491688febd9090d0af899bd000423fa28982019081526001600160a01b0390931660208401528989013583830152908901356060830152908160808201039161026c601f199384810183528261050c565b5190206040519384918983019687909160429261190160f01b8352600283015260228201520190565b0390810183528261050c565b51902060405191829160808701359060608801359060ff60a08a01351690859094939260ff6060936080840197845216602083015260408201520152565b838052039060015afa1561032f5761031b61032b9161031660005161030383610bd2565b6001600160a01b03908116911614610beb565b610c43565b6040519081529081906020820190565b0390f35b610bdf565b60009103126101bd57565b346101bd5760003660031901126101bd5760206040517f95e4ef37c3a6f272c9643be790506aae9308712fd6486b6634697bab6ca3eefc8152f35b346101bd5760203660031901126101bd5760043560005260008051602061117a8339815191526020526020600160406000200154604051908152f35b6001600160a01b038116036101bd57565b346101bd5760403660031901126101bd576104166024356004356103ea826103b6565b8060005260008051602061117a833981519152602052610411600160406000200154610d97565b610e9c565b005b346101bd5760403660031901126101bd57602435610435816103b6565b336001600160a01b038216036104515761041690600435610f3d565b60405163334bd91960e11b8152600490fd5b346101bd5760e03660031901126101bd5761047d366101c2565b602060006104966008546102956102a161020687610bd2565b838052039060015afa1561032f576104c361032b916104ba60005161030383610bd2565b60c43590610c68565b6040516001600160a01b0390911681529081906020820190565b634e487b7160e01b600052604160045260246000fd5b67ffffffffffffffff811161050757604052565b6104dd565b90601f8019910116810190811067ffffffffffffffff82111761050757604052565b9061053c604051928361050c565b565b60005b8381106105515750506000910152565b8181015183820152602001610541565b346101bd5760003660031901126101bd5760408051908082019180831067ffffffffffffffff841117610507576105c2928252600581526020810164302e302e3160d81b81528251938492602084525180928160208601528585019061053e565b601f01601f19168101030190f35b346101bd5760003660031901126101bd576002546040516001600160a01b039091168152602090f35b346101bd5760403660031901126101bd57602060ff61065060243561061d816103b6565b60043560005260008051602061117a833981519152845260406000209060018060a01b0316600052602052604060002090565b54166040519015158152f35b346101bd5760003660031901126101bd576020600854604051908152f35b346101bd5760003660031901126101bd57602060405160008152f35b346101bd5760003660031901126101bd5760206040517f52ba824bfabc2bcfcdf7f0edbb486ebb05e1836c90e78047efeb949990f72e5f8152f35b346101bd5760003660031901126101bd576020600754604051908152f35b346101bd576040806003193601126101bd5760043561070d816103b6565b7f52ba824bfabc2bcfcdf7f0edbb486ebb05e1836c90e78047efeb949990f72e5f600090815260008051602061117a8339815191526020908152838220338352815260408220546024359492919060ff16156109265761012061077182820161052e565b9080825261105a838301396004546107c2906107a390610797906001600160a01b031681565b6001600160a01b031690565b916107b48651938492868401610fd5565b03601f19810183528261050c565b8051910182f0926001600160a01b038416916107df831515610ff3565b823b156109235783516305e52ecf60e21b81523060048201526001600160a01b038316602482015260448101879052908160648183875af195861561032f576108d47fae872e3635caff3b3832933d9806fbb87f4234a74ecee890a2fe85574546caee936108ef9361032b9961090a575b506108ba8861089b6108748460018060a01b03166000526006602052604060002090565b6001600160a01b038516600090815260056020526040902054600052602052604060002090565b80546001600160a01b0319166001600160a01b03909216919091179055565b6001600160a01b0316600090815260056020526040902090565b6108de8154611034565b905584519081529081906020820190565b0390a2516001600160a01b0390911681529081906020820190565b8061091761091d926104f3565b80610334565b38610850565b80fd5b60849083519062461bcd60e51b82526004820152603160248201527f526566756e6457616c6c6574456e747279706f696e743a206f6e6c792074686f6044820152701c9b909c9a5919d94818d85b8818d85b1b607a1b6064820152fd5b346101bd5760403660031901126101bd576104166024356004356109a6826103b6565b8060005260008051602061117a8339815191526020526109cd600160406000200154610d97565b610f3d565b346101bd5760003660031901126101bd576001546040516001600160a01b039091168152602090f35b346101bd5760003660031901126101bd576004546040516001600160a01b039091168152602090f35b346101bd5760003660031901126101bd576003546040516001600160a01b039091168152602090f35b346101bd5760003660031901126101bd576000546040516001600160a01b039091168152602090f35b346101bd5760803660031901126101bd57600435610a93816103b6565b60243590610aa0826103b6565b604435610aac816103b6565b60643590610ab9826103b6565b60008051602061119a833981519152549367ffffffffffffffff60ff8660401c1615951680159081610bca575b6001149081610bc0575b159081610bb7575b50610ba55760008051602061119a833981519152805467ffffffffffffffff19166001179055610b2c9385610b7b57610c9b565b610b3257005b60008051602061119a833981519152805460ff60401b19169055604051600181527fc7f505b2f371ae2175ee4913f4499e1f2633a7b5936321eed1cdaeb6115181d290602090a1005b60008051602061119a833981519152805460ff60401b191668010000000000000000179055610c9b565b60405163f92ee8a960e01b8152600490fd5b90501538610af8565b303b159150610af0565b869150610ae6565b35610bdc816103b6565b90565b6040513d6000823e3d90fd5b15610bf257565b60405162461bcd60e51b8152602060048201526024808201527f526566756e6457616c6c65743a20496e76616c69642041757468656e746963616044820152633a34b7b760e11b6064820152608490fd5b35610c4d816103b6565b6001600160a01b031660009081526005602052604090205490565b3590610c73826103b6565b60018060a01b0380921660005260066020526040600020906000526020526040600020541690565b929060018060a01b0392838092816bffffffffffffffffffffffff60a01b9716876000541617600055168560015416176001551683600254161760025516906004541617600455610ceb33610de7565b50610d157f8b73c3c69bb8fe3d512ecc4cf759cc79239f7b179b0ffacaa9a75d522b39400f600755565b60075460408051602081019283527f95e4ef37c3a6f272c9643be790506aae9308712fd6486b6634697bab6ca3eefc918101919091527fc89efdaa54c0f20c7adf612882df0950f5a951637e0307cdcb4c672f298b8bc660608201524660808201523060a082015261053c9190610d8f8160c081016107b4565b519020600855565b600081815260008051602061117a8339815191526020908152604080832033845290915290205460ff1615610dc95750565b6044906040519063e2517d3f60e01b82523360048301526024820152fd5b6001600160a01b03811660009081527fb7db2dd08fcb62d0c9e08c51941cae53c267786a0b75803fb7960902fc8ef97d602052604081205460008051602061117a8339815191529060ff16610e9657818052602090815260408083206001600160a01b038516600090815292529020805460ff1916600117905533916001600160a01b0316907f2f8788117e7eff1d82e926ec794901d17c78024a50270940304540a733656f0d8180a4600190565b50905090565b600081815260008051602061117a833981519152602081815260408084206001600160a01b038716855290915282205491929160ff16610f3657818352602090815260408084206001600160a01b038616600090815292529020805460ff1916600117905533926001600160a01b0316917f2f8788117e7eff1d82e926ec794901d17c78024a50270940304540a733656f0d9080a4600190565b5050905090565b600081815260008051602061117a833981519152602081815260408084206001600160a01b038716855290915282205491929160ff1615610f3657818352602090815260408084206001600160a01b038616600090815292529020805460ff1916905533926001600160a01b0316917ff6391f5c32d9c69d2a47ea670b442974b53935d1edc7fd64eb21e047a839171b9080a4600190565b6020929190610feb84928281519485920161053e565b019081520190565b15610ffa57565b60405162461bcd60e51b815260206004820152601260248201527110dc99585d194818d85b1b0819985a5b195960721b6044820152606490fd5b60001981146110435760010190565b634e487b7160e01b600052601160045260246000fdfe6080346100aa57601f61012038819003918201601f19168301916001600160401b038311848410176100af578084926020946040528339810103126100aa57516001600160a01b0381168082036100aa5715610065573055604051605a90816100c68239f35b60405162461bcd60e51b815260206004820152601e60248201527f496e76616c696420696d706c656d656e746174696f6e206164647265737300006044820152606490fd5b600080fd5b634e487b7160e01b600052604160045260246000fdfe608060405230546000808092368280378136915af43d82803e156020573d90f35b3d90fdfea264697066735822122073f6c6790c1dda264456edc87937a4c80f5412a8cb46ec9702bc69038cce608164736f6c6343000818003302dd7bc7dec4dceedda775e58dd541e08a116c6c53815c0bd028192f7b626800f0c57e16840df040f15088dc2f81fe391c3923bec73e23a9662efc9c229c6a00a2646970667358221220181ec2475f7f2543c5af674ef2a2da1e9f9df7dd7037c294f24b59ffe9c18eac64736f6c63430008180033",
  "devdoc": {
    "errors": {
      "AccessControlBadConfirmation()": [
        {
          "details": "The caller of a function is not the expected one. NOTE: Don't confuse with {AccessControlUnauthorizedAccount}."
        }
      ],
      "AccessControlUnauthorizedAccount(address,bytes32)": [
        {
          "details": "The `account` is missing a role."
        }
      ],
      "InvalidInitialization()": [
        {
          "details": "The contract is already initialized."
        }
      ],
      "NotInitializing()": [
        {
          "details": "The contract is not initializing."
        }
      ]
    },
    "events": {
      "Initialized(uint64)": {
        "details": "Triggered when the contract has been initialized or reinitialized."
      },
      "RoleAdminChanged(bytes32,bytes32,bytes32)": {
        "details": "Emitted when `newAdminRole` is set as ``role``'s admin role, replacing `previousAdminRole` `DEFAULT_ADMIN_ROLE` is the starting admin for all roles, despite {RoleAdminChanged} not being emitted signaling this."
      },
      "RoleGranted(bytes32,address,address)": {
        "details": "Emitted when `account` is granted `role`. `sender` is the account that originated the contract call. This account bears the admin role (for the granted role). Expected in cases where the role was granted using the internal {AccessControl-_grantRole}."
      },
      "RoleRevoked(bytes32,address,address)": {
        "details": "Emitted when `account` is revoked `role`. `sender` is the account that originated the contract call:   - if using `revokeRole`, it is the admin role bearer   - if using `renounceRole`, it is the role bearer (i.e. `account`)"
      }
    },
    "kind": "dev",
    "methods": {
      "getRoleAdmin(bytes32)": {
        "details": "Returns the admin role that controls `role`. See {grantRole} and {revokeRole}. To change a role's admin, use {_setRoleAdmin}."
      },
      "grantRole(bytes32,address)": {
        "details": "Grants `role` to `account`. If `account` had not been already granted `role`, emits a {RoleGranted} event. Requirements: - the caller must have ``role``'s admin role. May emit a {RoleGranted} event."
      },
      "hasRole(bytes32,address)": {
        "details": "Returns `true` if `account` has been granted `role`."
      },
      "renounceRole(bytes32,address)": {
        "details": "Revokes `role` from the calling account. Roles are often managed via {grantRole} and {revokeRole}: this function's purpose is to provide a mechanism for accounts to lose their privileges if they are compromised (such as when a trusted device is misplaced). If the calling account had been revoked `role`, emits a {RoleRevoked} event. Requirements: - the caller must be `callerConfirmation`. May emit a {RoleRevoked} event."
      },
      "revokeRole(bytes32,address)": {
        "details": "Revokes `role` from `account`. If `account` had been granted `role`, emits a {RoleRevoked} event. Requirements: - the caller must have ``role``'s admin role. May emit a {RoleRevoked} event."
      },
      "supportsInterface(bytes4)": {
        "details": "See {IERC165-supportsInterface}."
      }
    },
    "version": 1
  },
  "userdoc": {
    "kind": "user",
    "methods": {},
    "version": 1
  },
  "storageLayout": {
    "storage": [
      {
        "astId": 989,
        "contract": "contracts/refundWallet/RefundWalletEntrypoint.sol:RefundWalletEntrypoint",
        "label": "thornUSD",
        "offset": 0,
        "slot": "0",
        "type": "t_address"
      },
      {
        "astId": 991,
        "contract": "contracts/refundWallet/RefundWalletEntrypoint.sol:RefundWalletEntrypoint",
        "label": "whisprMinter",
        "offset": 0,
        "slot": "1",
        "type": "t_address"
      },
      {
        "astId": 993,
        "contract": "contracts/refundWallet/RefundWalletEntrypoint.sol:RefundWalletEntrypoint",
        "label": "stableSwapRouter",
        "offset": 0,
        "slot": "2",
        "type": "t_address"
      },
      {
        "astId": 995,
        "contract": "contracts/refundWallet/RefundWalletEntrypoint.sol:RefundWalletEntrypoint",
        "label": "thornBridge",
        "offset": 0,
        "slot": "3",
        "type": "t_address"
      },
      {
        "astId": 997,
        "contract": "contracts/refundWallet/RefundWalletEntrypoint.sol:RefundWalletEntrypoint",
        "label": "basicImplementation",
        "offset": 0,
        "slot": "4",
        "type": "t_address"
      },
      {
        "astId": 1001,
        "contract": "contracts/refundWallet/RefundWalletEntrypoint.sol:RefundWalletEntrypoint",
        "label": "countTransaction",
        "offset": 0,
        "slot": "5",
        "type": "t_mapping(t_address,t_uint256)"
      },
      {
        "astId": 1007,
        "contract": "contracts/refundWallet/RefundWalletEntrypoint.sol:RefundWalletEntrypoint",
        "label": "ownerToWallet",
        "offset": 0,
        "slot": "6",
        "type": "t_mapping(t_address,t_mapping(t_uint256,t_address))"
      },
      {
        "astId": 1009,
        "contract": "contracts/refundWallet/RefundWalletEntrypoint.sol:RefundWalletEntrypoint",
        "label": "EIP712_DOMAIN_TYPEHASH",
        "offset": 0,
        "slot": "7",
        "type": "t_bytes32"
      },
      {
        "astId": 1016,
        "contract": "contracts/refundWallet/RefundWalletEntrypoint.sol:RefundWalletEntrypoint",
        "label": "DOMAIN_LOGIN",
        "offset": 0,
        "slot": "8",
        "type": "t_bytes32"
      }
    ],
    "types": {
      "t_address": {
        "encoding": "inplace",
        "label": "address",
        "numberOfBytes": "20"
      },
      "t_bytes32": {
        "encoding": "inplace",
        "label": "bytes32",
        "numberOfBytes": "32"
      },
      "t_mapping(t_address,t_mapping(t_uint256,t_address))": {
        "encoding": "mapping",
        "key": "t_address",
        "label": "mapping(address => mapping(uint256 => address))",
        "numberOfBytes": "32",
        "value": "t_mapping(t_uint256,t_address)"
      },
      "t_mapping(t_address,t_uint256)": {
        "encoding": "mapping",
        "key": "t_address",
        "label": "mapping(address => uint256)",
        "numberOfBytes": "32",
        "value": "t_uint256"
      },
      "t_mapping(t_uint256,t_address)": {
        "encoding": "mapping",
        "key": "t_uint256",
        "label": "mapping(uint256 => address)",
        "numberOfBytes": "32",
        "value": "t_address"
      },
      "t_uint256": {
        "encoding": "inplace",
        "label": "uint256",
        "numberOfBytes": "32"
      }
    }
  }
}