{
  "address": "0xB2187778eA602867e99D1a6208f681610a38FAA8",
  "abi": [
    {
      "inputs": [],
      "name": "InvalidInitialization",
      "type": "error"
    },
    {
      "inputs": [],
      "name": "NotInitializing",
      "type": "error"
    },
    {
      "anonymous": false,
      "inputs": [
        {
          "indexed": false,
          "internalType": "uint64",
          "name": "version",
          "type": "uint64"
        }
      ],
      "name": "Initialized",
      "type": "event"
    },
    {
      "inputs": [],
      "name": "VERSION",
      "outputs": [
        {
          "internalType": "string",
          "name": "",
          "type": "string"
        }
      ],
      "stateMutability": "view",
      "type": "function"
    },
    {
      "inputs": [],
      "name": "depositId",
      "outputs": [
        {
          "internalType": "uint256",
          "name": "",
          "type": "uint256"
        }
      ],
      "stateMutability": "view",
      "type": "function"
    },
    {
      "inputs": [],
      "name": "entrypoint",
      "outputs": [
        {
          "internalType": "address",
          "name": "",
          "type": "address"
        }
      ],
      "stateMutability": "view",
      "type": "function"
    },
    {
      "inputs": [
        {
          "internalType": "address",
          "name": "_entrypoint",
          "type": "address"
        },
        {
          "internalType": "address",
          "name": "_owner",
          "type": "address"
        },
        {
          "internalType": "uint256",
          "name": "_depositId",
          "type": "uint256"
        }
      ],
      "name": "initialize",
      "outputs": [],
      "stateMutability": "nonpayable",
      "type": "function"
    },
    {
      "inputs": [
        {
          "internalType": "address",
          "name": "token",
          "type": "address"
        },
        {
          "internalType": "address",
          "name": "receiver",
          "type": "address"
        },
        {
          "internalType": "uint256",
          "name": "amount",
          "type": "uint256"
        }
      ],
      "name": "withdraw",
      "outputs": [],
      "stateMutability": "nonpayable",
      "type": "function"
    }
  ],
  "transactionHash": "0x7fbdfbb7cce1a6015697d06f2d7e51c991c952b6190eb545fdf0579bf7a6f536",
  "args": [],
  "numDeployments": 1,
  "solcInputHash": "85486ebc65db5e28f6133ff0af79a49d",
  "bytecode": "0x6080806040523461001657610415908161001c8239f35b600080fdfe6080604081815260048036101561001557600080fd5b600092833560e01c9081631794bb3c14610262575080639852099c14610243578063a65d69d41461021b578063d9caed12146100fb5763ffa1ad741461005a57600080fd5b346100f757826003193601126100f7578151908282019082821067ffffffffffffffff8311176100e4575082526005815260209064302e302e3160d81b6020820152825193849260208452825192836020860152825b8481106100ce57505050828201840152601f01601f19168101030190f35b81810183015188820188015287955082016100b0565b634e487b7160e01b855260419052602484fd5b8280fd5b5090346100f75761010b366103a5565b85549094926001600160a01b039291831633036101cc578291876020946044938851998a96879563a9059cbb60e01b875216898601526024850152165af180156101c257610157578380f35b6020913d6020116101ba575b601f8301601f191684019167ffffffffffffffff8311858410176101a75750526020908201829003126101a35751801515036101a0573880808380f35b80fd5b5080fd5b634e487b7160e01b865260419052602485fd5b3d9250610163565b82513d86823e3d90fd5b845162461bcd60e51b8152602081860152602360248201527f57616c6c65743a2063616c6c6572206973206e6f7420616e20656e747279706f6044820152621a5b9d60ea1b6064820152608490fd5b5050346101a357816003193601126101a357905490516001600160a01b039091168152602090f35b5050346101a357816003193601126101a3576020906002549051908152f35b9050346103a157610272366103a5565b91907ff0c57e16840df040f15088dc2f81fe391c3923bec73e23a9662efc9c229c6a009485549060ff82891c16159567ffffffffffffffff831680159081610399575b600114908161038f575b159081610386575b5061037a57505067ffffffffffffffff19811660011786558461035b575b5086546001600160a01b039283166001600160a01b03199182161788556001805492909316911617905560025561031a578280f35b805468ff00000000000000001916905551600181527fc7f505b2f371ae2175ee4913f4499e1f2633a7b5936321eed1cdaeb6115181d290602090a138808280f35b68ffffffffffffffffff191668010000000000000001178555386102e5565b63f92ee8a960e01b8152fd5b905015386102c7565b303b1591506102bf565b8891506102b5565b8380fd5b60609060031901126103da576001600160a01b039060043582811681036103da579160243590811681036103da579060443590565b600080fdfea26469706673582212209bc79c58a2988e6eb8cee7754f5aace13037c922edf2ae31db94886fab27cab664736f6c63430008180033",
  "devdoc": {
    "errors": {
      "InvalidInitialization()": [
        {
          "details": "The contract is already initialized."
        }
      ],
      "NotInitializing()": [
        {
          "details": "The contract is not initializing."
        }
      ]
    },
    "events": {
      "Initialized(uint64)": {
        "details": "Triggered when the contract has been initialized or reinitialized."
      }
    },
    "kind": "dev",
    "methods": {},
    "version": 1
  },
  "userdoc": {
    "kind": "user",
    "methods": {},
    "version": 1
  },
  "storageLayout": {
    "storage": [
      {
        "astId": 9096,
        "contract": "contracts/refundWallet/RefundWallet.sol:RefundWallet",
        "label": "entrypoint",
        "offset": 0,
        "slot": "0",
        "type": "t_address"
      },
      {
        "astId": 9098,
        "contract": "contracts/refundWallet/RefundWallet.sol:RefundWallet",
        "label": "owner",
        "offset": 0,
        "slot": "1",
        "type": "t_address"
      },
      {
        "astId": 9100,
        "contract": "contracts/refundWallet/RefundWallet.sol:RefundWallet",
        "label": "depositId",
        "offset": 0,
        "slot": "2",
        "type": "t_uint256"
      }
    ],
    "types": {
      "t_address": {
        "encoding": "inplace",
        "label": "address",
        "numberOfBytes": "20"
      },
      "t_uint256": {
        "encoding": "inplace",
        "label": "uint256",
        "numberOfBytes": "32"
      }
    }
  }
}