{
  "address": "0xFF4984AcC99fD9b5D5E435fBF9011F052A477581",
  "abi": [
    {
      "inputs": [
        {
          "internalType": "string",
          "name": "name_",
          "type": "string"
        },
        {
          "internalType": "string",
          "name": "symbol_",
          "type": "string"
        },
        {
          "internalType": "uint8",
          "name": "decimals_",
          "type": "uint8"
        },
        {
          "internalType": "address",
          "name": "owner",
          "type": "address"
        }
      ],
      "stateMutability": "nonpayable",
      "type": "constructor"
    },
    {
      "inputs": [],
      "name": "AccessControlBadConfirmation",
      "type": "error"
    },
    {
      "inputs": [
        {
          "internalType": "address",
          "name": "account",
          "type": "address"
        },
        {
          "internalType": "bytes32",
          "name": "neededRole",
          "type": "bytes32"
        }
      ],
      "name": "AccessControlUnauthorizedAccount",
      "type": "error"
    },
    {
      "inputs": [],
      "name": "ECDSAInvalidSignature",
      "type": "error"
    },
    {
      "inputs": [
        {
          "internalType": "uint256",
          "name": "length",
          "type": "uint256"
        }
      ],
      "name": "ECDSAInvalidSignatureLength",
      "type": "error"
    },
    {
      "inputs": [
        {
          "internalType": "bytes32",
          "name": "s",
          "type": "bytes32"
        }
      ],
      "name": "ECDSAInvalidSignatureS",
      "type": "error"
    },
    {
      "anonymous": false,
      "inputs": [
        {
          "indexed": true,
          "internalType": "address",
          "name": "owner",
          "type": "address"
        },
        {
          "indexed": true,
          "internalType": "address",
          "name": "spender",
          "type": "address"
        },
        {
          "indexed": false,
          "internalType": "uint256",
          "name": "value",
          "type": "uint256"
        }
      ],
      "name": "Approval",
      "type": "event"
    },
    {
      "anonymous": false,
      "inputs": [
        {
          "indexed": true,
          "internalType": "bytes32",
          "name": "role",
          "type": "bytes32"
        },
        {
          "indexed": true,
          "internalType": "bytes32",
          "name": "previousAdminRole",
          "type": "bytes32"
        },
        {
          "indexed": true,
          "internalType": "bytes32",
          "name": "newAdminRole",
          "type": "bytes32"
        }
      ],
      "name": "RoleAdminChanged",
      "type": "event"
    },
    {
      "anonymous": false,
      "inputs": [
        {
          "indexed": true,
          "internalType": "bytes32",
          "name": "role",
          "type": "bytes32"
        },
        {
          "indexed": true,
          "internalType": "address",
          "name": "account",
          "type": "address"
        },
        {
          "indexed": true,
          "internalType": "address",
          "name": "sender",
          "type": "address"
        }
      ],
      "name": "RoleGranted",
      "type": "event"
    },
    {
      "anonymous": false,
      "inputs": [
        {
          "indexed": true,
          "internalType": "bytes32",
          "name": "role",
          "type": "bytes32"
        },
        {
          "indexed": true,
          "internalType": "address",
          "name": "account",
          "type": "address"
        },
        {
          "indexed": true,
          "internalType": "address",
          "name": "sender",
          "type": "address"
        }
      ],
      "name": "RoleRevoked",
      "type": "event"
    },
    {
      "anonymous": false,
      "inputs": [
        {
          "indexed": true,
          "internalType": "address",
          "name": "from",
          "type": "address"
        },
        {
          "indexed": true,
          "internalType": "address",
          "name": "to",
          "type": "address"
        },
        {
          "indexed": false,
          "internalType": "uint256",
          "name": "value",
          "type": "uint256"
        }
      ],
      "name": "Transfer",
      "type": "event"
    },
    {
      "inputs": [],
      "name": "APPROVE_ACTION",
      "outputs": [
        {
          "internalType": "bytes32",
          "name": "",
          "type": "bytes32"
        }
      ],
      "stateMutability": "view",
      "type": "function"
    },
    {
      "inputs": [],
      "name": "APPROVE_CODE",
      "outputs": [
        {
          "internalType": "bytes32",
          "name": "",
          "type": "bytes32"
        }
      ],
      "stateMutability": "view",
      "type": "function"
    },
    {
      "inputs": [],
      "name": "BALANCEOF_CODE",
      "outputs": [
        {
          "internalType": "bytes32",
          "name": "",
          "type": "bytes32"
        }
      ],
      "stateMutability": "view",
      "type": "function"
    },
    {
      "inputs": [],
      "name": "DEFAULT_ADMIN_ROLE",
      "outputs": [
        {
          "internalType": "bytes32",
          "name": "",
          "type": "bytes32"
        }
      ],
      "stateMutability": "view",
      "type": "function"
    },
    {
      "inputs": [],
      "name": "DOMAIN_APPROVE",
      "outputs": [
        {
          "internalType": "bytes32",
          "name": "",
          "type": "bytes32"
        }
      ],
      "stateMutability": "view",
      "type": "function"
    },
    {
      "inputs": [],
      "name": "DOMAIN_BALANCEOF",
      "outputs": [
        {
          "internalType": "bytes32",
          "name": "",
          "type": "bytes32"
        }
      ],
      "stateMutability": "view",
      "type": "function"
    },
    {
      "inputs": [],
      "name": "EIP712_DOMAIN_TYPEHASH",
      "outputs": [
        {
          "internalType": "bytes32",
          "name": "",
          "type": "bytes32"
        }
      ],
      "stateMutability": "view",
      "type": "function"
    },
    {
      "inputs": [],
      "name": "GORERNANCE_ROLE",
      "outputs": [
        {
          "internalType": "bytes32",
          "name": "",
          "type": "bytes32"
        }
      ],
      "stateMutability": "view",
      "type": "function"
    },
    {
      "inputs": [],
      "name": "MINTER_ROLE",
      "outputs": [
        {
          "internalType": "bytes32",
          "name": "",
          "type": "bytes32"
        }
      ],
      "stateMutability": "view",
      "type": "function"
    },
    {
      "inputs": [],
      "name": "TRANSFER_ACTION",
      "outputs": [
        {
          "internalType": "bytes32",
          "name": "",
          "type": "bytes32"
        }
      ],
      "stateMutability": "view",
      "type": "function"
    },
    {
      "inputs": [],
      "name": "_globalTotalSupply",
      "outputs": [
        {
          "internalType": "uint256",
          "name": "",
          "type": "uint256"
        }
      ],
      "stateMutability": "view",
      "type": "function"
    },
    {
      "inputs": [
        {
          "internalType": "address",
          "name": "owner",
          "type": "address"
        },
        {
          "internalType": "address",
          "name": "spender",
          "type": "address"
        }
      ],
      "name": "allowance",
      "outputs": [
        {
          "internalType": "uint256",
          "name": "",
          "type": "uint256"
        }
      ],
      "stateMutability": "view",
      "type": "function"
    },
    {
      "inputs": [
        {
          "internalType": "address",
          "name": "spender",
          "type": "address"
        },
        {
          "internalType": "uint256",
          "name": "amount",
          "type": "uint256"
        }
      ],
      "name": "approve",
      "outputs": [
        {
          "internalType": "bool",
          "name": "",
          "type": "bool"
        }
      ],
      "stateMutability": "nonpayable",
      "type": "function"
    },
    {
      "inputs": [
        {
          "components": [
            {
              "internalType": "address",
              "name": "owner",
              "type": "address"
            },
            {
              "internalType": "address",
              "name": "spender",
              "type": "address"
            },
            {
              "internalType": "uint256",
              "name": "amount",
              "type": "uint256"
            },
            {
              "internalType": "uint256",
              "name": "nonce",
              "type": "uint256"
            },
            {
              "internalType": "uint256",
              "name": "validAfter",
              "type": "uint256"
            },
            {
              "internalType": "uint256",
              "name": "validUntil",
              "type": "uint256"
            },
            {
              "components": [
                {
                  "internalType": "bytes32",
                  "name": "r",
                  "type": "bytes32"
                },
                {
                  "internalType": "bytes32",
                  "name": "s",
                  "type": "bytes32"
                },
                {
                  "internalType": "uint256",
                  "name": "v",
                  "type": "uint256"
                }
              ],
              "internalType": "struct SignatureRSV",
              "name": "rsv",
              "type": "tuple"
            }
          ],
          "internalType": "struct PrivacyERC20EIP712.ApproveData",
          "name": "auth",
          "type": "tuple"
        }
      ],
      "name": "approveByEIP712",
      "outputs": [
        {
          "internalType": "bool",
          "name": "",
          "type": "bool"
        }
      ],
      "stateMutability": "nonpayable",
      "type": "function"
    },
    {
      "inputs": [
        {
          "internalType": "address",
          "name": "owner",
          "type": "address"
        },
        {
          "internalType": "address",
          "name": "spender",
          "type": "address"
        },
        {
          "internalType": "uint256",
          "name": "amount",
          "type": "uint256"
        },
        {
          "internalType": "bytes",
          "name": "data",
          "type": "bytes"
        },
        {
          "internalType": "bytes",
          "name": "signature",
          "type": "bytes"
        }
      ],
      "name": "approveUseSignature",
      "outputs": [
        {
          "internalType": "bool",
          "name": "",
          "type": "bool"
        }
      ],
      "stateMutability": "nonpayable",
      "type": "function"
    },
    {
      "inputs": [
        {
          "internalType": "address",
          "name": "account",
          "type": "address"
        }
      ],
      "name": "balanceOf",
      "outputs": [
        {
          "internalType": "uint256",
          "name": "",
          "type": "uint256"
        }
      ],
      "stateMutability": "view",
      "type": "function"
    },
    {
      "inputs": [
        {
          "components": [
            {
              "internalType": "address",
              "name": "owner",
              "type": "address"
            },
            {
              "internalType": "uint256",
              "name": "validAfter",
              "type": "uint256"
            },
            {
              "internalType": "uint256",
              "name": "validUntil",
              "type": "uint256"
            },
            {
              "components": [
                {
                  "internalType": "bytes32",
                  "name": "r",
                  "type": "bytes32"
                },
                {
                  "internalType": "bytes32",
                  "name": "s",
                  "type": "bytes32"
                },
                {
                  "internalType": "uint256",
                  "name": "v",
                  "type": "uint256"
                }
              ],
              "internalType": "struct SignatureRSV",
              "name": "rsv",
              "type": "tuple"
            }
          ],
          "internalType": "struct PrivacyERC20EIP712.BalanceOfData",
          "name": "auth",
          "type": "tuple"
        }
      ],
      "name": "balanceOfByEIP712",
      "outputs": [
        {
          "internalType": "uint256",
          "name": "",
          "type": "uint256"
        }
      ],
      "stateMutability": "view",
      "type": "function"
    },
    {
      "inputs": [
        {
          "internalType": "uint256",
          "name": "amount",
          "type": "uint256"
        }
      ],
      "name": "burn",
      "outputs": [],
      "stateMutability": "nonpayable",
      "type": "function"
    },
    {
      "inputs": [],
      "name": "decimals",
      "outputs": [
        {
          "internalType": "uint8",
          "name": "",
          "type": "uint8"
        }
      ],
      "stateMutability": "view",
      "type": "function"
    },
    {
      "inputs": [
        {
          "internalType": "address",
          "name": "account",
          "type": "address"
        }
      ],
      "name": "getNonce",
      "outputs": [
        {
          "internalType": "uint256",
          "name": "",
          "type": "uint256"
        }
      ],
      "stateMutability": "view",
      "type": "function"
    },
    {
      "inputs": [
        {
          "internalType": "address",
          "name": "account",
          "type": "address"
        }
      ],
      "name": "getNonceEIP712",
      "outputs": [
        {
          "internalType": "uint256",
          "name": "",
          "type": "uint256"
        }
      ],
      "stateMutability": "view",
      "type": "function"
    },
    {
      "inputs": [
        {
          "internalType": "bytes32",
          "name": "role",
          "type": "bytes32"
        }
      ],
      "name": "getRoleAdmin",
      "outputs": [
        {
          "internalType": "bytes32",
          "name": "",
          "type": "bytes32"
        }
      ],
      "stateMutability": "view",
      "type": "function"
    },
    {
      "inputs": [
        {
          "internalType": "address",
          "name": "to",
          "type": "address"
        },
        {
          "internalType": "enum LuminexPrivacyPolicy.PrivacyPolicy",
          "name": "accessType",
          "type": "uint8"
        }
      ],
      "name": "grant",
      "outputs": [],
      "stateMutability": "nonpayable",
      "type": "function"
    },
    {
      "inputs": [
        {
          "internalType": "bytes32",
          "name": "role",
          "type": "bytes32"
        },
        {
          "internalType": "address",
          "name": "account",
          "type": "address"
        }
      ],
      "name": "grantRole",
      "outputs": [],
      "stateMutability": "nonpayable",
      "type": "function"
    },
    {
      "inputs": [
        {
          "internalType": "bytes32",
          "name": "role",
          "type": "bytes32"
        },
        {
          "internalType": "address",
          "name": "account",
          "type": "address"
        }
      ],
      "name": "hasRole",
      "outputs": [
        {
          "internalType": "bool",
          "name": "",
          "type": "bool"
        }
      ],
      "stateMutability": "view",
      "type": "function"
    },
    {
      "inputs": [],
      "name": "initPrivacyERC20EIP712",
      "outputs": [],
      "stateMutability": "nonpayable",
      "type": "function"
    },
    {
      "inputs": [
        {
          "internalType": "address",
          "name": "to",
          "type": "address"
        },
        {
          "internalType": "uint256",
          "name": "amount",
          "type": "uint256"
        }
      ],
      "name": "mint",
      "outputs": [],
      "stateMutability": "nonpayable",
      "type": "function"
    },
    {
      "inputs": [],
      "name": "name",
      "outputs": [
        {
          "internalType": "string",
          "name": "",
          "type": "string"
        }
      ],
      "stateMutability": "view",
      "type": "function"
    },
    {
      "inputs": [
        {
          "internalType": "bytes32",
          "name": "role",
          "type": "bytes32"
        },
        {
          "internalType": "address",
          "name": "callerConfirmation",
          "type": "address"
        }
      ],
      "name": "renounceRole",
      "outputs": [],
      "stateMutability": "nonpayable",
      "type": "function"
    },
    {
      "inputs": [
        {
          "internalType": "address",
          "name": "from",
          "type": "address"
        },
        {
          "internalType": "enum LuminexPrivacyPolicy.PrivacyPolicy",
          "name": "accessType",
          "type": "uint8"
        }
      ],
      "name": "revoke",
      "outputs": [],
      "stateMutability": "nonpayable",
      "type": "function"
    },
    {
      "inputs": [
        {
          "internalType": "bytes32",
          "name": "role",
          "type": "bytes32"
        },
        {
          "internalType": "address",
          "name": "account",
          "type": "address"
        }
      ],
      "name": "revokeRole",
      "outputs": [],
      "stateMutability": "nonpayable",
      "type": "function"
    },
    {
      "inputs": [
        {
          "internalType": "bytes4",
          "name": "interfaceId",
          "type": "bytes4"
        }
      ],
      "name": "supportsInterface",
      "outputs": [
        {
          "internalType": "bool",
          "name": "",
          "type": "bool"
        }
      ],
      "stateMutability": "view",
      "type": "function"
    },
    {
      "inputs": [],
      "name": "symbol",
      "outputs": [
        {
          "internalType": "string",
          "name": "",
          "type": "string"
        }
      ],
      "stateMutability": "view",
      "type": "function"
    },
    {
      "inputs": [],
      "name": "totalSupply",
      "outputs": [
        {
          "internalType": "uint256",
          "name": "",
          "type": "uint256"
        }
      ],
      "stateMutability": "view",
      "type": "function"
    },
    {
      "inputs": [
        {
          "internalType": "address",
          "name": "to",
          "type": "address"
        },
        {
          "internalType": "uint256",
          "name": "amount",
          "type": "uint256"
        }
      ],
      "name": "transfer",
      "outputs": [
        {
          "internalType": "bool",
          "name": "",
          "type": "bool"
        }
      ],
      "stateMutability": "nonpayable",
      "type": "function"
    },
    {
      "inputs": [
        {
          "internalType": "address",
          "name": "from",
          "type": "address"
        },
        {
          "internalType": "address",
          "name": "to",
          "type": "address"
        },
        {
          "internalType": "uint256",
          "name": "amount",
          "type": "uint256"
        }
      ],
      "name": "transferFrom",
      "outputs": [
        {
          "internalType": "bool",
          "name": "",
          "type": "bool"
        }
      ],
      "stateMutability": "nonpayable",
      "type": "function"
    },
    {
      "inputs": [
        {
          "internalType": "address",
          "name": "from",
          "type": "address"
        },
        {
          "internalType": "address",
          "name": "to",
          "type": "address"
        },
        {
          "internalType": "uint256",
          "name": "amount",
          "type": "uint256"
        },
        {
          "internalType": "bytes",
          "name": "data",
          "type": "bytes"
        },
        {
          "internalType": "bytes",
          "name": "signature",
          "type": "bytes"
        }
      ],
      "name": "transferUseSignature",
      "outputs": [
        {
          "internalType": "bool",
          "name": "",
          "type": "bool"
        }
      ],
      "stateMutability": "nonpayable",
      "type": "function"
    },
    {
      "inputs": [
        {
          "internalType": "address",
          "name": "owner",
          "type": "address"
        },
        {
          "internalType": "address",
          "name": "spender",
          "type": "address"
        },
        {
          "internalType": "uint256",
          "name": "amount",
          "type": "uint256"
        },
        {
          "internalType": "bytes",
          "name": "data",
          "type": "bytes"
        },
        {
          "internalType": "bytes",
          "name": "signature",
          "type": "bytes"
        }
      ],
      "name": "verifyApprove",
      "outputs": [],
      "stateMutability": "view",
      "type": "function"
    },
    {
      "inputs": [
        {
          "internalType": "address",
          "name": "signer",
          "type": "address"
        },
        {
          "internalType": "bytes",
          "name": "data",
          "type": "bytes"
        },
        {
          "internalType": "bytes",
          "name": "signature",
          "type": "bytes"
        }
      ],
      "name": "verifyEthMessage",
      "outputs": [
        {
          "internalType": "bool",
          "name": "",
          "type": "bool"
        }
      ],
      "stateMutability": "pure",
      "type": "function"
    },
    {
      "inputs": [
        {
          "internalType": "address",
          "name": "owner",
          "type": "address"
        },
        {
          "internalType": "address",
          "name": "spender",
          "type": "address"
        },
        {
          "internalType": "uint256",
          "name": "amount",
          "type": "uint256"
        },
        {
          "internalType": "bytes",
          "name": "data",
          "type": "bytes"
        },
        {
          "internalType": "bytes",
          "name": "signature",
          "type": "bytes"
        }
      ],
      "name": "verifyTransfer",
      "outputs": [],
      "stateMutability": "view",
      "type": "function"
    }
  ],
  "transactionHash": "0x9ce30f41a5e43ee31a946bd8352706a8cd35bd1bc68e38950a2f3864cb2212ba",
  "args": [
    "WhisprUSD",
    "WUSD",
    18,
    "0x48d66a65693dB44d3ca05CBb54e0a806096e2eDA"
  ],
  "numDeployments": 1,
  "solcInputHash": "e79f7434b31f02e83405158af1d46542",
  "bytecode": "0x60806040818152346200048657620025a28038038091620000218286620004a7565b84398201608083820312620004865782516001600160401b03939084811162000486578262000052918301620004cb565b906020928382015190868211620004865762000070918301620004cb565b91848201519160ff8316809303620004865760600151926001600160a01b038416840362000486577f8cf74985ef9d149204edb8e66f26e5768254597f6db68dda508d7d79669a95d26003557f9143236d81225394f3bd65b44e6e29fdf4d7ba0773d9bb3f5cc15eb80ba377776004558151908782116200039857600a54916001938484811c941680156200047b575b8885101462000377578190601f9485811162000424575b508890858311600114620003ba57600092620003ae575b5050600019600383901b1c191690841b17600a555b80519788116200039857600b548381811c911680156200038d575b8782101462000377578281116200032b575b5085918811600114620002be579680928192620001b6979899600094620002b2575b50501b916000199060031b1c191617600b555b60ff19600c541617600c5562000541565b50815190808201917f8b73c3c69bb8fe3d512ecc4cf759cc79239f7b179b0ffacaa9a75d522b39400f928381527f2a50e46136e2edaf4e6a06e8ee6fab482ae9a09d5098bb13021844d4f1b5bad1858301527fc89efdaa54c0f20c7adf612882df0950f5a951637e0307cdcb4c672f298b8bc6918260608201524660808201523060a082015260a081526200024b816200048b565b51902060055583519182019283527f0d365f77514ec9a38bc312b966a1e412fee15de616f2709f1a363555182074258483015260608201524660808201523060a082015260a081526200029e816200048b565b51902060065551611fce9081620005d48239f35b01519250388062000192565b9690601f19821690600b600052866000209160005b8181106200031557509883620001b698999a10620002fb575b505050811b01600b55620001a5565b015160001960f88460031b161c19169055388080620002ec565b8a830151845592850192918801918801620002d3565b600b6000528660002083808b0160051c820192898c106200036d575b0160051c019084905b8281106200036057505062000170565b6000815501849062000350565b9250819262000347565b634e487b7160e01b600052602260045260246000fd5b90607f16906200015e565b634e487b7160e01b600052604160045260246000fd5b0151905038806200012e565b90869350601f19831691600a6000528a6000209260005b8c8282106200040d5750508411620003f3575b505050811b01600a5562000143565b015160001960f88460031b161c19169055388080620003e4565b8385015186558a97909501949384019301620003d1565b909150600a600052886000208580850160051c8201928b861062000471575b918891869594930160051c01915b8281106200046157505062000117565b6000815585945088910162000451565b9250819262000443565b93607f169362000100565b600080fd5b60c081019081106001600160401b038211176200039857604052565b601f909101601f19168101906001600160401b038211908210176200039857604052565b919080601f84011215620004865782516001600160401b0381116200039857602090604051926200050683601f19601f8501160185620004a7565b818452828287010111620004865760005b8181106200052d57508260009394955001015290565b858101830151848201840152820162000517565b6001600160a01b031660008181527fa6eef7e35abe7026729641147f7915573c7e97b47efa546f5f6e3230263bcb49602052604081205490919060ff16620005cf5781805260016020526040822081835260205260408220600160ff1982541617905533917f2f8788117e7eff1d82e926ec794901d17c78024a50270940304540a733656f0d8180a4600190565b509056fe608060408181526004918236101561001657600080fd5b600092833560e01c91826301ffc9a7146111b55750816306fdde03146110f4578163095ea7b3146110ca57816315839bd01461109257816318160ddd14610c225781631b52868d14610fd457816323b872dd14610f08578163248a9ca314610ede5781632d0335ab14610eb85781632f2ff15d14610e8e578163313ce56714610e6c578163359e0f5114610d6c57816336568abe14610d2657816340c10f1914610c8057816342966c6814610c415781634a82244a14610c2257816370a0823114610bfc5781637b58ff2714610bdd5781638a7c65c014610ba25781638e8f5ab114610b8457816391d1485414610b3d57816395d89b4114610a38578163a217fddf14610a1d578163a9059cbb146109f3578163b5406248146107d5578163b5d6afa9146107b6578163c7977be71461077b578163ce14b86a1461075a578163d42009d31461073c578163d539139314610701578163d547741f146106c2578163d5fbf32f1461064d578163d980d1ce14610615578163dd62ed3e146105e7578163ec02a446146105c8578163f3135f6f1461058d578163f3ac8f12146104cd578163f3cb80d81461024657508063f56eb9cb1461021a5763f705cfd3146101dd57600080fd5b34610216578160031936011261021657602090517f2a50e46136e2edaf4e6a06e8ee6fab482ae9a09d5098bb13021844d4f1b5bad18152f35b5080fd5b50346102165760203660031901126102165760209061023f61023a6112a5565b61162b565b9051908152f35b9050346104c95761012092836003193601126104c65760843561026b81421015611412565b60a4359261027b84421115611472565b606435936001600160a01b0392836102916114cc565b16855260209760078952878620548703610479578890600654936102b36114cc565b936102bc6114e2565b99886044359b8d828151988901997f86be6847d753b6b4c71091ca32e42fd664388f5f29603fc2693e2833a98cb76c8b5216908801521660608601528a608086015260a085015260c084015260e083015260e0825261010082019282841067ffffffffffffffff85111761046657838a528251902061190160f01b91830191825260028201949094526022810193909352820360dd19810182528892869261039a9261036c9060bd19018261123a565b51902088519081526101043560ff16602082015260c435604082015260e43560608201529081906080820190565b838052039060015afa1561045c57825182806103b46114cc565b92169116036103fe57506103f7929184916103cd6114cc565b16815260078652206103df8154611acd565b90556103e96114cc565b6103f16114e2565b90611654565b5160018152f35b845162461bcd60e51b8152908101869052603260248201527f5072697661637945524332304549503731323a20496e76616c6964204170707660448201527137bb329020baba3432b73a34b1b0ba34b7b760711b6064820152608490fd5b84513d84823e3d90fd5b634e487b7160e01b885260418652602488fd5b875162461bcd60e51b81528085018a9052602160248201527f5072697661637945524332304549503731323a20696e76616c6964206e6f6e636044820152606560f81b6064820152608490fd5b80fd5b8280fd5b9050346104c9576104dd3661138b565b90600182101561057a573385526020928584528486209160018060a01b0316918287528452600160ff8688205494161b8093161561053f5750338552848352838520818652835283852054923386528581528486209186525219169082205580f35b845162461bcd60e51b81529081018490526015602482015274139bc81858d8d95cdcc819dc985b9d1959081e595d605a1b6044820152606490fd5b634e487b7160e01b855260218352602485fd5b505034610216578160031936011261021657602090517fbab4e43de7ecd13eca00f710c17bcd20c9bded9bce55a80cbc4f7b3e2cb582198152f35b5050346102165781600319360112610216576020906003549051908152f35b50503461021657806003193601126102165760209061023f6106076112a5565b61060f6112c0565b906115b2565b505034610216576020906103f761063f61062e36611318565b928486889798999699949394611dff565b61064881611af2565b611654565b9050346104c95760603660031901126104c9576106686112a5565b9067ffffffffffffffff906024358281116106be5761068a90369083016112ea565b9290956044359182116104c65750916106ad6106b59492602097943691016112ea565b93909261153f565b90519015158152f35b8580fd5b919050346104c957806003193601126104c9576106fd91356106f860016106e76112c0565b938387528160205286200154611cb7565b611d7b565b5080f35b505034610216578160031936011261021657602090517f9f2df0fed2c77648de5860a4cc508cd0818c85b8b8a1ab4ceeef8d981c8956a68152f35b9050346104c957826003193601126104c95760209250549051908152f35b83346104c65761077861076c36611318565b95949094939193611a35565b80f35b505034610216578160031936011261021657602090517f8b73c3c69bb8fe3d512ecc4cf759cc79239f7b179b0ffacaa9a75d522b39400f8152f35b5050346102165781600319360112610216576020906005549051908152f35b8383346102165760c036600319011261021657602435916107f883421015611412565b60443561080781421115611472565b82519367ffffffffffffffff60608601818111878210176109e0578552603e8652603e6020967f76616c696441667465722c75696e743235362076616c6964556e74696c29000087898301927f62616c616e63654f662861646472657373206f776e65722c75696e7432353620845201522091600554926108866114cc565b9487519289840192835260018060a01b0380971689850152606084015260808301526080825260a0820192828410908411176109cd578287528151902061190160f01b60c0830190815260c283019490945260e290910152604281528591849161092391906108f660628261123a565b519020865190815260a43560ff166020820152606435604082015260843560608201529081906080820190565b838052039060015afa156109c1578151818061093d6114cc565b9216911603610961579082916109516114cc565b1681526008845220549051908152f35b825162461bcd60e51b8152808601859052603460248201527f5072697661637945524332304549503731323a20496e76616c69642042616c616044820152733731b2a7b31020baba3432b73a34b1b0ba34b7b760611b6064820152608490fd5b509051903d90823e3d90fd5b634e487b7160e01b865260418952602486fd5b634e487b7160e01b855260418852602485fd5b5050346102165780600319360112610216576020906103f7610a136112a5565b6024359033611b25565b50503461021657816003193601126102165751908152602090f35b919050346104c957826003193601126104c95780519183600b54906001908260011c92600181168015610b33575b6020958686108214610b205750848852908115610afe5750600114610aa5575b610aa18686610a97828b038361123a565b519182918261125c565b0390f35b929550600b83527f0175b7a638427703f0dbe7bb9bbf987a2551717b34e79f33b5b1008d1fa01db95b828410610aeb5750505082610aa194610a97928201019438610a86565b8054868501880152928601928101610ace565b60ff191687860152505050151560051b8301019250610a9782610aa138610a86565b634e487b7160e01b845260229052602483fd5b93607f1693610a66565b9050346104c957816003193601126104c9578160209360ff92610b5e6112c0565b90358252600186528282206001600160a01b039091168252855220549151911615158152f35b83346104c657610778610b9636611318565b95949094939193611dff565b505034610216578160031936011261021657602090517f0d365f77514ec9a38bc312b966a1e412fee15de616f2709f1a363555182074258152f35b5050346102165781600319360112610216576020906006549051908152f35b5050346102165760203660031901126102165760209061023f610c1d6112a5565b6113e9565b505034610216578160031936011261021657602090600d549051908152f35b919050346104c95760203660031901126104c957610c7a91359033845260086020528320610c70828254611df2565b9055600d54611df2565b600d5580f35b83915034610216578260031936011261021657610c9b6112a5565b92602435917f9f2df0fed2c77648de5860a4cc508cd0818c85b8b8a1ab4ceeef8d981c8956a6808552600160205282852033865260205260ff838620541615610d0b575050610c7a929360018060a01b0316845260086020528320610d01828254611b18565b9055600d54611b18565b604492519163e2517d3f60e01b835233908301526024820152fd5b838334610216578060031936011261021657610d406112c0565b90336001600160a01b03831603610d5d57506106fd919235611d7b565b5163334bd91960e11b81528390fd5b50503461021657816003193601126102165780519060208201917f8b73c3c69bb8fe3d512ecc4cf759cc79239f7b179b0ffacaa9a75d522b39400f928381527f2a50e46136e2edaf4e6a06e8ee6fab482ae9a09d5098bb13021844d4f1b5bad1838301527fc89efdaa54c0f20c7adf612882df0950f5a951637e0307cdcb4c672f298b8bc6918260608201524660808201523060a082015260a08152610e1181611208565b5190206005557f0d365f77514ec9a38bc312b966a1e412fee15de616f2709f1a363555182074258251926020840194855283015260608201524660808201523060a082015260a08152610e6381611208565b51902060065580f35b50503461021657816003193601126102165760209060ff600c54169051908152f35b919050346104c957806003193601126104c9576106fd9135610eb360016106e76112c0565b611cfb565b5050346102165760203660031901126102165760209061023f610ed96112a5565b6113ba565b9050346104c95760203660031901126104c957816020936001923581528285522001549051908152f35b8391503461021657606036600319011261021657610f246112a5565b610f2c6112c0565b6001600160a01b03821684526009602090815285852033865290529284902054604435939260018201610f68575b6020866103f7878787611b25565b848210610f915750918391610f86602096956103f795033383611654565b919394819350610f5a565b606490602087519162461bcd60e51b8352820152601d60248201527f45524332303a20696e73756666696369656e7420616c6c6f77616e63650000006044820152fd5b919050346104c957610fe53661138b565b600181101561107f573385526020938585528386209260018060a01b0316928387528552600160ff8588205493161b809216611043575033855284845282852082865284528285205417923385528481528285209185525282205580f35b835162461bcd60e51b815290810185905260166024820152751058d8d95cdcc8185b1c9958591e4819dc985b9d195960521b6044820152606490fd5b634e487b7160e01b855260218452602485fd5b505034610216576020906103f76110bc6110ab36611318565b928486889798999699949394611a35565b6110c581611af2565b611b25565b5050346102165780600319360112610216576020906103f76110ea6112a5565b6024359033611654565b919050346104c957826003193601126104c95780519183600a54906001908260011c926001811680156111ab575b6020958686108214610b205750848852908115610afe575060011461115257610aa18686610a97828b038361123a565b929550600a83527fc65a7bb8d6351c1cf70c95a316cc6a92839c986682d98bc35f958f4883f9d2a85b8284106111985750505082610aa194610a97928201019438610a86565b805486850188015292860192810161117b565b93607f1693611122565b8491346104c95760203660031901126104c9573563ffffffff60e01b81168091036104c95760209250637965db0b60e01b81149081156111f7575b5015158152f35b6301ffc9a760e01b149050836111f0565b60c0810190811067ffffffffffffffff82111761122457604052565b634e487b7160e01b600052604160045260246000fd5b90601f8019910116810190811067ffffffffffffffff82111761122457604052565b6020808252825181830181905290939260005b82811061129157505060409293506000838284010152601f8019910116010190565b81810186015184820160400152850161126f565b600435906001600160a01b03821682036112bb57565b600080fd5b602435906001600160a01b03821682036112bb57565b35906001600160a01b03821682036112bb57565b9181601f840112156112bb5782359167ffffffffffffffff83116112bb57602083818601950101116112bb57565b9060a06003198301126112bb576001600160a01b039160043583811681036112bb579260243590811681036112bb57916044359167ffffffffffffffff916064358381116112bb578261136d916004016112ea565b939093926084359182116112bb57611387916004016112ea565b9091565b60409060031901126112bb576004356001600160a01b03811681036112bb579060243560018110156112bb5790565b6113c381611c6c565b156113e3576001600160a01b031660009081526002602052604090205490565b50600090565b6113f281611c6c565b156113e3576001600160a01b031660009081526008602052604090205490565b1561141957565b60405162461bcd60e51b815260206004820152602b60248201527f5072697661637945524332304549503731323a207369676e6174757265206e6f60448201526a1d081e595d081d985b1a5960aa1b6064820152608490fd5b1561147957565b60405162461bcd60e51b815260206004820152602560248201527f5072697661637945524332304549503731323a207369676e61747572652065786044820152641c1a5c995960da1b6064820152608490fd5b6004356001600160a01b03811681036112bb5790565b6024356001600160a01b03811681036112bb5790565b92919267ffffffffffffffff82116112245760405191611522601f8201601f19166020018461123a565b8294818452818301116112bb578281602093846000960137010152565b92611592906115576115a196936115989536916114f8565b602081519101207f19457468657265756d205369676e6564204d6573736167653a0a333200000000600052601c52603c6000209236916114f8565b90611e36565b90939193611e72565b6001600160a01b0391821691161490565b906115bc82611c6c565b156116245760018060a01b03809216906000918083526020906009825260409485852093169283855282528484205415158061161b575b6116095783526009815283832091835252205490565b83526009815283832091835252205490565b508233146115f3565b5050600090565b61163481611c6c565b156113e3576001600160a01b031660009081526007602052604090205490565b6001600160a01b039081169182156116da571690811561168a576000526009602052604060002090600052602052604060002055565b60405162461bcd60e51b815260206004820152602260248201527f45524332303a20617070726f766520746f20746865207a65726f206164647265604482015261737360f01b6064820152608490fd5b60405162461bcd60e51b8152602060048201526024808201527f45524332303a20617070726f76652066726f6d20746865207a65726f206164646044820152637265737360e01b6064820152608490fd5b908160e09103126112bb5761173f816112d6565b9161174c602083016112d6565b9160408101359160608201359160808101359160c060a083013592013590565b1561177357565b60405162461bcd60e51b815260206004820152602260248201527f5072697661637945524332305665726966793a206f776e6572206d69736d61746044820152610c6d60f31b6064820152608490fd5b156117ca57565b60405162461bcd60e51b8152602060048201526024808201527f5072697661637945524332305665726966793a207370656e646572206d69736d6044820152630c2e8c6d60e31b6064820152608490fd5b1561182257565b60405162461bcd60e51b815260206004820152602360248201527f5072697661637945524332305665726966793a20616d6f756e74206d69736d616044820152620e8c6d60eb1b6064820152608490fd5b1561187a57565b60405162461bcd60e51b815260206004820152602360248201527f5072697661637945524332305665726966793a20616374696f6e206d69736d616044820152620e8c6d60eb1b6064820152608490fd5b156118d257565b60405162461bcd60e51b815260206004820152602160248201527f5072697661637945524332305665726966793a20696e76616c6964206e6f6e636044820152606560f81b6064820152608490fd5b1561192857565b60405162461bcd60e51b815260206004820152602b60248201527f5072697661637945524332305665726966793a207369676e6174757265206e6f60448201526a1d081e595d081d985b1a5960aa1b6064820152608490fd5b1561198857565b60405162461bcd60e51b815260206004820152602560248201527f5072697661637945524332305665726966793a207369676e61747572652065786044820152641c1a5c995960da1b6064820152608490fd5b156119e257565b60405162461bcd60e51b815260206004820152602560248201527f5072697661637945524332305665726966793a20696e76616c6964207369676e604482015264617475726560d81b6064820152608490fd5b611ac1611acb979593611ab9611a8e611ab185611ac69b9997611a9d611a85611a94611a638d8d018d61172b565b9e94600180929e95979b9499939c9260a01b039283808094169c168c1461176c565b169116146117c3565b1461181b565b60045414611873565b6000526002602052604060002054146118cb565b421015611921565b421115611981565b61153f565b6119db565b565b6000198114611adc5760010190565b634e487b7160e01b600052601160045260246000fd5b6001600160a01b031660009081526002602052604090208054611b1490611acd565b9055565b91908201809211611adc57565b6001600160a01b03908116918215611c1957168015611bc85760008281526008602052604081205491848310611b745784604093611b1495845260086020520383832055815220918254611b18565b60405162461bcd60e51b815260206004820152602660248201527f45524332303a207472616e7366657220616d6f756e7420657863656564732062604482015265616c616e636560d01b6064820152608490fd5b60405162461bcd60e51b815260206004820152602360248201527f45524332303a207472616e7366657220746f20746865207a65726f206164647260448201526265737360e81b6064820152608490fd5b60405162461bcd60e51b815260206004820152602560248201527f45524332303a207472616e736665722066726f6d20746865207a65726f206164604482015264647265737360d81b6064820152608490fd5b60018060a01b0316803314908115611cad575b8115611c89575090565b90506000526000602052604060002033600052602052600160406000205416151590565b3330149150611c7f565b80600052600160205260406000203360005260205260ff6040600020541615611cdd5750565b6044906040519063e2517d3f60e01b82523360048301526024820152fd5b906000918083526001602052604083209160018060a01b03169182845260205260ff60408420541615600014611d765780835260016020526040832082845260205260408320600160ff198254161790557f2f8788117e7eff1d82e926ec794901d17c78024a50270940304540a733656f0d339380a4600190565b505090565b906000918083526001602052604083209160018060a01b03169182845260205260ff604084205416600014611d76578083526001602052604083208284526020526040832060ff1981541690557ff6391f5c32d9c69d2a47ea670b442974b53935d1edc7fd64eb21e047a839171b339380a4600190565b91908203918211611adc57565b611ac1611acb979593611ab9611a8e611ab185611ac69b9997611a9d611a85611e2d611a638d8d018d61172b565b60035414611873565b8151919060418303611e6757611e6092506020820151906060604084015193015160001a90611ef7565b9192909190565b505060009160029190565b6004811015611ee15780611e84575050565b60018103611e9e5760405163f645eedf60e01b8152600490fd5b60028103611ebf5760405163fce698f760e01b815260048101839052602490fd5b600314611ec95750565b602490604051906335e2f38360e21b82526004820152fd5b634e487b7160e01b600052602160045260246000fd5b9291907f7fffffffffffffffffffffffffffffff5d576e7357a4501ddfe92f46681b20a08311611f8c5791611f4d9160209360405195869094939260ff6060936080840197845216602083015260408201520152565b826000938492838052039060015afa15611f805780516001600160a01b03811615611f7757918190565b50809160019190565b604051903d90823e3d90fd5b5060009360039350905056fea264697066735822122030dde85a92dda1c55035c239a2e2590b6a130a2ab590dbe2ab698101e34c0c0064736f6c63430008180033",
  "devdoc": {
    "errors": {
      "AccessControlBadConfirmation()": [
        {
          "details": "The caller of a function is not the expected one. NOTE: Don't confuse with {AccessControlUnauthorizedAccount}."
        }
      ],
      "AccessControlUnauthorizedAccount(address,bytes32)": [
        {
          "details": "The `account` is missing a role."
        }
      ],
      "ECDSAInvalidSignature()": [
        {
          "details": "The signature derives the `address(0)`."
        }
      ],
      "ECDSAInvalidSignatureLength(uint256)": [
        {
          "details": "The signature has an invalid length."
        }
      ],
      "ECDSAInvalidSignatureS(bytes32)": [
        {
          "details": "The signature has an S value that is in the upper half order."
        }
      ]
    },
    "events": {
      "Approval(address,address,uint256)": {
        "details": "Emitted when the allowance of a `spender` for an `owner` is set by a call to {approve}. `value` is the new allowance."
      },
      "RoleAdminChanged(bytes32,bytes32,bytes32)": {
        "details": "Emitted when `newAdminRole` is set as ``role``'s admin role, replacing `previousAdminRole` `DEFAULT_ADMIN_ROLE` is the starting admin for all roles, despite {RoleAdminChanged} not being emitted signaling this."
      },
      "RoleGranted(bytes32,address,address)": {
        "details": "Emitted when `account` is granted `role`. `sender` is the account that originated the contract call. This account bears the admin role (for the granted role). Expected in cases where the role was granted using the internal {AccessControl-_grantRole}."
      },
      "RoleRevoked(bytes32,address,address)": {
        "details": "Emitted when `account` is revoked `role`. `sender` is the account that originated the contract call:   - if using `revokeRole`, it is the admin role bearer   - if using `renounceRole`, it is the role bearer (i.e. `account`)"
      },
      "Transfer(address,address,uint256)": {
        "details": "Emitted when `value` tokens are moved from one account (`from`) to another (`to`). Note that `value` may be zero."
      }
    },
    "kind": "dev",
    "methods": {
      "allowance(address,address)": {
        "details": "Returns the remaining number of tokens that `spender` will be allowed to spend on behalf of `owner` through {transferFrom}. This is zero by default. This value changes when {approve} or {transferFrom} are called."
      },
      "balanceOf(address)": {
        "details": "Returns the value of tokens owned by `account`."
      },
      "getRoleAdmin(bytes32)": {
        "details": "Returns the admin role that controls `role`. See {grantRole} and {revokeRole}. To change a role's admin, use {_setRoleAdmin}."
      },
      "grantRole(bytes32,address)": {
        "details": "Grants `role` to `account`. If `account` had not been already granted `role`, emits a {RoleGranted} event. Requirements: - the caller must have ``role``'s admin role. May emit a {RoleGranted} event."
      },
      "hasRole(bytes32,address)": {
        "details": "Returns `true` if `account` has been granted `role`."
      },
      "renounceRole(bytes32,address)": {
        "details": "Revokes `role` from the calling account. Roles are often managed via {grantRole} and {revokeRole}: this function's purpose is to provide a mechanism for accounts to lose their privileges if they are compromised (such as when a trusted device is misplaced). If the calling account had been revoked `role`, emits a {RoleRevoked} event. Requirements: - the caller must be `callerConfirmation`. May emit a {RoleRevoked} event."
      },
      "revokeRole(bytes32,address)": {
        "details": "Revokes `role` from `account`. If `account` had been granted `role`, emits a {RoleRevoked} event. Requirements: - the caller must have ``role``'s admin role. May emit a {RoleRevoked} event."
      },
      "supportsInterface(bytes4)": {
        "details": "See {IERC165-supportsInterface}."
      },
      "totalSupply()": {
        "details": "Returns the value of tokens in existence."
      }
    },
    "version": 1
  },
  "userdoc": {
    "kind": "user",
    "methods": {},
    "version": 1
  },
  "storageLayout": {
    "storage": [
      {
        "astId": 9242,
        "contract": "contracts/privacy-token/PrivacyERC20.sol:PrivacyERC20",
        "label": "grantedAccess",
        "offset": 0,
        "slot": "0",
        "type": "t_mapping(t_address,t_mapping(t_address,t_uint256))"
      },
      {
        "astId": 729,
        "contract": "contracts/privacy-token/PrivacyERC20.sol:PrivacyERC20",
        "label": "_roles",
        "offset": 0,
        "slot": "1",
        "type": "t_mapping(t_bytes32,t_struct(RoleData)724_storage)"
      },
      {
        "astId": 8937,
        "contract": "contracts/privacy-token/PrivacyERC20.sol:PrivacyERC20",
        "label": "_nonce",
        "offset": 0,
        "slot": "2",
        "type": "t_mapping(t_address,t_uint256)"
      },
      {
        "astId": 8942,
        "contract": "contracts/privacy-token/PrivacyERC20.sol:PrivacyERC20",
        "label": "APPROVE_ACTION",
        "offset": 0,
        "slot": "3",
        "type": "t_bytes32"
      },
      {
        "astId": 8947,
        "contract": "contracts/privacy-token/PrivacyERC20.sol:PrivacyERC20",
        "label": "TRANSFER_ACTION",
        "offset": 0,
        "slot": "4",
        "type": "t_bytes32"
      },
      {
        "astId": 8599,
        "contract": "contracts/privacy-token/PrivacyERC20.sol:PrivacyERC20",
        "label": "DOMAIN_BALANCEOF",
        "offset": 0,
        "slot": "5",
        "type": "t_bytes32"
      },
      {
        "astId": 8601,
        "contract": "contracts/privacy-token/PrivacyERC20.sol:PrivacyERC20",
        "label": "DOMAIN_APPROVE",
        "offset": 0,
        "slot": "6",
        "type": "t_bytes32"
      },
      {
        "astId": 8631,
        "contract": "contracts/privacy-token/PrivacyERC20.sol:PrivacyERC20",
        "label": "_nonce_eip712",
        "offset": 0,
        "slot": "7",
        "type": "t_mapping(t_address,t_uint256)"
      },
      {
        "astId": 7938,
        "contract": "contracts/privacy-token/PrivacyERC20.sol:PrivacyERC20",
        "label": "_balances",
        "offset": 0,
        "slot": "8",
        "type": "t_mapping(t_address,t_uint256)"
      },
      {
        "astId": 7944,
        "contract": "contracts/privacy-token/PrivacyERC20.sol:PrivacyERC20",
        "label": "_allowances",
        "offset": 0,
        "slot": "9",
        "type": "t_mapping(t_address,t_mapping(t_address,t_uint256))"
      },
      {
        "astId": 7946,
        "contract": "contracts/privacy-token/PrivacyERC20.sol:PrivacyERC20",
        "label": "name",
        "offset": 0,
        "slot": "10",
        "type": "t_string_storage"
      },
      {
        "astId": 7948,
        "contract": "contracts/privacy-token/PrivacyERC20.sol:PrivacyERC20",
        "label": "symbol",
        "offset": 0,
        "slot": "11",
        "type": "t_string_storage"
      },
      {
        "astId": 7950,
        "contract": "contracts/privacy-token/PrivacyERC20.sol:PrivacyERC20",
        "label": "decimals",
        "offset": 0,
        "slot": "12",
        "type": "t_uint8"
      },
      {
        "astId": 7952,
        "contract": "contracts/privacy-token/PrivacyERC20.sol:PrivacyERC20",
        "label": "_globalTotalSupply",
        "offset": 0,
        "slot": "13",
        "type": "t_uint256"
      }
    ],
    "types": {
      "t_address": {
        "encoding": "inplace",
        "label": "address",
        "numberOfBytes": "20"
      },
      "t_bool": {
        "encoding": "inplace",
        "label": "bool",
        "numberOfBytes": "1"
      },
      "t_bytes32": {
        "encoding": "inplace",
        "label": "bytes32",
        "numberOfBytes": "32"
      },
      "t_mapping(t_address,t_bool)": {
        "encoding": "mapping",
        "key": "t_address",
        "label": "mapping(address => bool)",
        "numberOfBytes": "32",
        "value": "t_bool"
      },
      "t_mapping(t_address,t_mapping(t_address,t_uint256))": {
        "encoding": "mapping",
        "key": "t_address",
        "label": "mapping(address => mapping(address => uint256))",
        "numberOfBytes": "32",
        "value": "t_mapping(t_address,t_uint256)"
      },
      "t_mapping(t_address,t_uint256)": {
        "encoding": "mapping",
        "key": "t_address",
        "label": "mapping(address => uint256)",
        "numberOfBytes": "32",
        "value": "t_uint256"
      },
      "t_mapping(t_bytes32,t_struct(RoleData)724_storage)": {
        "encoding": "mapping",
        "key": "t_bytes32",
        "label": "mapping(bytes32 => struct AccessControl.RoleData)",
        "numberOfBytes": "32",
        "value": "t_struct(RoleData)724_storage"
      },
      "t_string_storage": {
        "encoding": "bytes",
        "label": "string",
        "numberOfBytes": "32"
      },
      "t_struct(RoleData)724_storage": {
        "encoding": "inplace",
        "label": "struct AccessControl.RoleData",
        "members": [
          {
            "astId": 721,
            "contract": "contracts/privacy-token/PrivacyERC20.sol:PrivacyERC20",
            "label": "hasRole",
            "offset": 0,
            "slot": "0",
            "type": "t_mapping(t_address,t_bool)"
          },
          {
            "astId": 723,
            "contract": "contracts/privacy-token/PrivacyERC20.sol:PrivacyERC20",
            "label": "adminRole",
            "offset": 0,
            "slot": "1",
            "type": "t_bytes32"
          }
        ],
        "numberOfBytes": "64"
      },
      "t_uint256": {
        "encoding": "inplace",
        "label": "uint256",
        "numberOfBytes": "32"
      },
      "t_uint8": {
        "encoding": "inplace",
        "label": "uint8",
        "numberOfBytes": "1"
      }
    }
  }
}