{
  "address": "0x0CEB1aB52ba525B501738e0b69B2CDC3361CBDF6",
  "abi": [
    {
      "inputs": [],
      "name": "AccessControlBadConfirmation",
      "type": "error"
    },
    {
      "inputs": [
        {
          "internalType": "address",
          "name": "account",
          "type": "address"
        },
        {
          "internalType": "bytes32",
          "name": "neededRole",
          "type": "bytes32"
        }
      ],
      "name": "AccessControlUnauthorizedAccount",
      "type": "error"
    },
    {
      "inputs": [],
      "name": "EnforcedPause",
      "type": "error"
    },
    {
      "inputs": [],
      "name": "ExpectedPause",
      "type": "error"
    },
    {
      "inputs": [],
      "name": "InvalidInitialization",
      "type": "error"
    },
    {
      "inputs": [],
      "name": "NotInitializing",
      "type": "error"
    },
    {
      "anonymous": false,
      "inputs": [
        {
          "indexed": false,
          "internalType": "uint64",
          "name": "version",
          "type": "uint64"
        }
      ],
      "name": "Initialized",
      "type": "event"
    },
    {
      "anonymous": false,
      "inputs": [
        {
          "indexed": false,
          "internalType": "address",
          "name": "account",
          "type": "address"
        }
      ],
      "name": "Paused",
      "type": "event"
    },
    {
      "anonymous": false,
      "inputs": [
        {
          "indexed": true,
          "internalType": "bytes32",
          "name": "role",
          "type": "bytes32"
        },
        {
          "indexed": true,
          "internalType": "bytes32",
          "name": "previousAdminRole",
          "type": "bytes32"
        },
        {
          "indexed": true,
          "internalType": "bytes32",
          "name": "newAdminRole",
          "type": "bytes32"
        }
      ],
      "name": "RoleAdminChanged",
      "type": "event"
    },
    {
      "anonymous": false,
      "inputs": [
        {
          "indexed": true,
          "internalType": "bytes32",
          "name": "role",
          "type": "bytes32"
        },
        {
          "indexed": true,
          "internalType": "address",
          "name": "account",
          "type": "address"
        },
        {
          "indexed": true,
          "internalType": "address",
          "name": "sender",
          "type": "address"
        }
      ],
      "name": "RoleGranted",
      "type": "event"
    },
    {
      "anonymous": false,
      "inputs": [
        {
          "indexed": true,
          "internalType": "bytes32",
          "name": "role",
          "type": "bytes32"
        },
        {
          "indexed": true,
          "internalType": "address",
          "name": "account",
          "type": "address"
        },
        {
          "indexed": true,
          "internalType": "address",
          "name": "sender",
          "type": "address"
        }
      ],
      "name": "RoleRevoked",
      "type": "event"
    },
    {
      "anonymous": false,
      "inputs": [
        {
          "indexed": false,
          "internalType": "address",
          "name": "account",
          "type": "address"
        }
      ],
      "name": "Unpaused",
      "type": "event"
    },
    {
      "inputs": [],
      "name": "DEFAULT_ADMIN_ROLE",
      "outputs": [
        {
          "internalType": "bytes32",
          "name": "",
          "type": "bytes32"
        }
      ],
      "stateMutability": "view",
      "type": "function"
    },
    {
      "inputs": [
        {
          "internalType": "uint256",
          "name": "amount",
          "type": "uint256"
        },
        {
          "internalType": "address",
          "name": "receiver",
          "type": "address"
        }
      ],
      "name": "burnWhisprUSD",
      "outputs": [],
      "stateMutability": "nonpayable",
      "type": "function"
    },
    {
      "inputs": [
        {
          "internalType": "bytes32",
          "name": "role",
          "type": "bytes32"
        }
      ],
      "name": "getRoleAdmin",
      "outputs": [
        {
          "internalType": "bytes32",
          "name": "",
          "type": "bytes32"
        }
      ],
      "stateMutability": "view",
      "type": "function"
    },
    {
      "inputs": [
        {
          "internalType": "bytes32",
          "name": "role",
          "type": "bytes32"
        },
        {
          "internalType": "address",
          "name": "account",
          "type": "address"
        }
      ],
      "name": "grantRole",
      "outputs": [],
      "stateMutability": "nonpayable",
      "type": "function"
    },
    {
      "inputs": [
        {
          "internalType": "bytes32",
          "name": "role",
          "type": "bytes32"
        },
        {
          "internalType": "address",
          "name": "account",
          "type": "address"
        }
      ],
      "name": "hasRole",
      "outputs": [
        {
          "internalType": "bool",
          "name": "",
          "type": "bool"
        }
      ],
      "stateMutability": "view",
      "type": "function"
    },
    {
      "inputs": [
        {
          "internalType": "address",
          "name": "_whisprUSD",
          "type": "address"
        },
        {
          "internalType": "address",
          "name": "_thornUSD",
          "type": "address"
        }
      ],
      "name": "initialize",
      "outputs": [],
      "stateMutability": "nonpayable",
      "type": "function"
    },
    {
      "inputs": [
        {
          "internalType": "uint256",
          "name": "amount",
          "type": "uint256"
        },
        {
          "internalType": "address",
          "name": "receiver",
          "type": "address"
        }
      ],
      "name": "mintWhisprUSD",
      "outputs": [
        {
          "internalType": "uint256",
          "name": "amountOut",
          "type": "uint256"
        }
      ],
      "stateMutability": "nonpayable",
      "type": "function"
    },
    {
      "inputs": [],
      "name": "pause",
      "outputs": [],
      "stateMutability": "nonpayable",
      "type": "function"
    },
    {
      "inputs": [],
      "name": "paused",
      "outputs": [
        {
          "internalType": "bool",
          "name": "",
          "type": "bool"
        }
      ],
      "stateMutability": "view",
      "type": "function"
    },
    {
      "inputs": [
        {
          "internalType": "bytes32",
          "name": "role",
          "type": "bytes32"
        },
        {
          "internalType": "address",
          "name": "callerConfirmation",
          "type": "address"
        }
      ],
      "name": "renounceRole",
      "outputs": [],
      "stateMutability": "nonpayable",
      "type": "function"
    },
    {
      "inputs": [
        {
          "internalType": "bytes32",
          "name": "role",
          "type": "bytes32"
        },
        {
          "internalType": "address",
          "name": "account",
          "type": "address"
        }
      ],
      "name": "revokeRole",
      "outputs": [],
      "stateMutability": "nonpayable",
      "type": "function"
    },
    {
      "inputs": [
        {
          "internalType": "bytes4",
          "name": "interfaceId",
          "type": "bytes4"
        }
      ],
      "name": "supportsInterface",
      "outputs": [
        {
          "internalType": "bool",
          "name": "",
          "type": "bool"
        }
      ],
      "stateMutability": "view",
      "type": "function"
    },
    {
      "inputs": [],
      "name": "thornUSD",
      "outputs": [
        {
          "internalType": "address",
          "name": "",
          "type": "address"
        }
      ],
      "stateMutability": "view",
      "type": "function"
    },
    {
      "inputs": [],
      "name": "unpause",
      "outputs": [],
      "stateMutability": "nonpayable",
      "type": "function"
    },
    {
      "inputs": [],
      "name": "whisprUSD",
      "outputs": [
        {
          "internalType": "address",
          "name": "",
          "type": "address"
        }
      ],
      "stateMutability": "view",
      "type": "function"
    }
  ],
  "transactionHash": "0x0e392906858c484fd29acd116161989180bdd30e4fadaa65ff987034d550ec48",
  "args": [],
  "numDeployments": 1,
  "solcInputHash": "d732905b6b0f2db3fea00bb480a125de",
  "bytecode": "0x6080806040523461001657610b29908161001c8239f35b600080fdfe608060408181526004908136101561001657600080fd5b600092833560e01c90816301ffc9a71461077a57508063248a9ca3146107425780632f2ff15d1461071a57806336568abe146106d35780633f4ba83a1461065b578063485cc955146104f95780635c975abb146104c85780638456cb591461046057806391d148541461040c578063a217fddf146103f1578063b97c8950146103c9578063d4d9463a14610263578063d547741f14610218578063f3bb6e2d146101eb5763fb6ce2b3146100c957600080fd5b346101a457806003193601126101a457813591836100e56107ce565b916100ee610a88565b60015484516323b872dd60e01b81523383820190815230602082810191909152604082018990526001600160a01b03939091839185169082908890829060600103925af180156101e1576101b2575b50825416803b156101a45784516340c10f1960e01b81526001600160a01b0390941691840191825260208201869052839182908490829060400103925af180156101a857610190575b6020838351908152f35b61019a84916107e9565b6101a45782610186565b8280fd5b82513d86823e3d90fd5b6101d39060203d6020116101da575b6101cb8183610813565b810190610835565b503861013d565b503d6101c1565b86513d86823e3d90fd5b83823461021457816003193601126102145760015490516001600160a01b039091168152602090f35b5080fd5b50346101a457806003193601126101a45761025f913561025a600161023b6107ce565b93838752600080516020610ab4833981519152602052862001546108a5565b610a05565b5080f35b50346101a457806003193601126101a457813561027e6107ce565b92610287610a88565b845483516323b872dd60e01b815233838201908152306020808301919091526040820186905296926001600160a01b039291889183918290036060019082908c9087165af180156103a2576103ac575b508681815416803b156102145781906024885180948193630852cd8d60e31b83528a8a8401525af180156103a257610383575b50600154855163a9059cbb60e01b81526001600160a01b0390931693830193845260208401949094529093928592859291909116908290889082906040015b03925af190811561037a575061035d578280f35b8161037392903d106101da576101cb8183610813565b5038808280f35b513d85823e3d90fd5b91869391976103966103499796946107e9565b9791935091939461030a565b86513d8a823e3d90fd5b6103c290873d89116101da576101cb8183610813565b50386102d7565b838234610214578160031936011261021457905490516001600160a01b039091168152602090f35b83823461021457816003193601126102145751908152602090f35b5090346101a457816003193601126101a4578160209360ff9261042d6107ce565b90358252600080516020610ab483398151915286528282206001600160a01b039091168252855220549151911615158152f35b83823461021457816003193601126102145760207f62e78cea01bee320cd4e420270b5ea74000d11b0c9f74754ebdbfc544b05a2589161049e61084d565b6104a6610a88565b600080516020610ad4833981519152805460ff1916600117905551338152a180f35b83823461021457816003193601126102145760209060ff600080516020610ad4833981519152541690519015158152f35b5090346101a457816003193601126101a4576001600160a01b0390803582811690819003610657576105296107ce565b927ff0c57e16840df040f15088dc2f81fe391c3923bec73e23a9662efc9c229c6a0093845460ff81881c16159467ffffffffffffffff82168015908161064f575b6001149081610645575b15908161063c575b5061062e575067ffffffffffffffff19811660011786558461060f575b506bffffffffffffffffffffffff60a01b9283885416178755169060015416176001556105c5336108d8565b506105ce578280f35b805468ff00000000000000001916905551600181527fc7f505b2f371ae2175ee4913f4499e1f2633a7b5936321eed1cdaeb6115181d290602090a138808280f35b68ffffffffffffffffff19166801000000000000000117855538610599565b875163f92ee8a960e01b8152fd5b9050153861057c565b303b159150610574565b87915061056a565b8480fd5b5090346101a457826003193601126101a45761067561084d565b600080516020610ad48339815191529081549060ff8216156106c5575060ff19169055513381527f5db9ee0a495bf2e6ff9c91a7834c1ba4fdd244a5e8aa4e537bd38aeae4b073aa90602090a180f35b8351638dfc202b60e01b8152fd5b508290346102145780600319360112610214576106ee6107ce565b90336001600160a01b0383160361070b575061025f919235610a05565b5163334bd91960e11b81528390fd5b50346101a457806003193601126101a45761025f913561073d600161023b6107ce565b610978565b5090346101a45760203660031901126101a45781602093600192358152600080516020610ab483398151915285522001549051908152f35b849084346101a45760203660031901126101a4573563ffffffff60e01b81168091036101a45760209250637965db0b60e01b81149081156107bd575b5015158152f35b6301ffc9a760e01b149050836107b6565b602435906001600160a01b03821682036107e457565b600080fd5b67ffffffffffffffff81116107fd57604052565b634e487b7160e01b600052604160045260246000fd5b90601f8019910116810190811067ffffffffffffffff8211176107fd57604052565b908160209103126107e4575180151581036107e45790565b3360009081527fb7db2dd08fcb62d0c9e08c51941cae53c267786a0b75803fb7960902fc8ef97d602052604081205460ff16156108875750565b6044906040519063e2517d3f60e01b82523360048301526024820152fd5b80600052600080516020610ab483398151915260205260406000203360005260205260ff60406000205416156108875750565b6001600160a01b031660008181527fb7db2dd08fcb62d0c9e08c51941cae53c267786a0b75803fb7960902fc8ef97d6020526040812054909190600080516020610ab48339815191529060ff16610973578280526020526040822081835260205260408220600160ff1982541617905533917f2f8788117e7eff1d82e926ec794901d17c78024a50270940304540a733656f0d8180a4600190565b505090565b90600091808352600080516020610ab483398151915280602052604084209260018060a01b03169283855260205260ff604085205416156000146109ff578184526020526040832082845260205260408320600160ff198254161790557f2f8788117e7eff1d82e926ec794901d17c78024a50270940304540a733656f0d339380a4600190565b50505090565b90600091808352600080516020610ab483398151915280602052604084209260018060a01b03169283855260205260ff6040852054166000146109ff57818452602052604083208284526020526040832060ff1981541690557ff6391f5c32d9c69d2a47ea670b442974b53935d1edc7fd64eb21e047a839171b339380a4600190565b60ff600080516020610ad48339815191525416610aa157565b60405163d93c066560e01b8152600490fdfe02dd7bc7dec4dceedda775e58dd541e08a116c6c53815c0bd028192f7b626800cd5ed15c6e187e77e9aee88184c21f4f2182ab5827cb3b7e07fbedcd63f03300a26469706673582212207aeb79f9ba8a140bbcfc3c43436d167cffd7b1f65de727185251e5d10f03f98e64736f6c63430008180033",
  "devdoc": {
    "errors": {
      "AccessControlBadConfirmation()": [
        {
          "details": "The caller of a function is not the expected one. NOTE: Don't confuse with {AccessControlUnauthorizedAccount}."
        }
      ],
      "AccessControlUnauthorizedAccount(address,bytes32)": [
        {
          "details": "The `account` is missing a role."
        }
      ],
      "EnforcedPause()": [
        {
          "details": "The operation failed because the contract is paused."
        }
      ],
      "ExpectedPause()": [
        {
          "details": "The operation failed because the contract is not paused."
        }
      ],
      "InvalidInitialization()": [
        {
          "details": "The contract is already initialized."
        }
      ],
      "NotInitializing()": [
        {
          "details": "The contract is not initializing."
        }
      ]
    },
    "events": {
      "Initialized(uint64)": {
        "details": "Triggered when the contract has been initialized or reinitialized."
      },
      "Paused(address)": {
        "details": "Emitted when the pause is triggered by `account`."
      },
      "RoleAdminChanged(bytes32,bytes32,bytes32)": {
        "details": "Emitted when `newAdminRole` is set as ``role``'s admin role, replacing `previousAdminRole` `DEFAULT_ADMIN_ROLE` is the starting admin for all roles, despite {RoleAdminChanged} not being emitted signaling this."
      },
      "RoleGranted(bytes32,address,address)": {
        "details": "Emitted when `account` is granted `role`. `sender` is the account that originated the contract call. This account bears the admin role (for the granted role). Expected in cases where the role was granted using the internal {AccessControl-_grantRole}."
      },
      "RoleRevoked(bytes32,address,address)": {
        "details": "Emitted when `account` is revoked `role`. `sender` is the account that originated the contract call:   - if using `revokeRole`, it is the admin role bearer   - if using `renounceRole`, it is the role bearer (i.e. `account`)"
      },
      "Unpaused(address)": {
        "details": "Emitted when the pause is lifted by `account`."
      }
    },
    "kind": "dev",
    "methods": {
      "getRoleAdmin(bytes32)": {
        "details": "Returns the admin role that controls `role`. See {grantRole} and {revokeRole}. To change a role's admin, use {_setRoleAdmin}."
      },
      "grantRole(bytes32,address)": {
        "details": "Grants `role` to `account`. If `account` had not been already granted `role`, emits a {RoleGranted} event. Requirements: - the caller must have ``role``'s admin role. May emit a {RoleGranted} event."
      },
      "hasRole(bytes32,address)": {
        "details": "Returns `true` if `account` has been granted `role`."
      },
      "paused()": {
        "details": "Returns true if the contract is paused, and false otherwise."
      },
      "renounceRole(bytes32,address)": {
        "details": "Revokes `role` from the calling account. Roles are often managed via {grantRole} and {revokeRole}: this function's purpose is to provide a mechanism for accounts to lose their privileges if they are compromised (such as when a trusted device is misplaced). If the calling account had been revoked `role`, emits a {RoleRevoked} event. Requirements: - the caller must be `callerConfirmation`. May emit a {RoleRevoked} event."
      },
      "revokeRole(bytes32,address)": {
        "details": "Revokes `role` from `account`. If `account` had been granted `role`, emits a {RoleRevoked} event. Requirements: - the caller must have ``role``'s admin role. May emit a {RoleRevoked} event."
      },
      "supportsInterface(bytes4)": {
        "details": "See {IERC165-supportsInterface}."
      }
    },
    "version": 1
  },
  "userdoc": {
    "kind": "user",
    "methods": {},
    "version": 1
  },
  "storageLayout": {
    "storage": [
      {
        "astId": 7340,
        "contract": "contracts/WhisprMinter.sol:WhisprMinter",
        "label": "whisprUSD",
        "offset": 0,
        "slot": "0",
        "type": "t_address"
      },
      {
        "astId": 7342,
        "contract": "contracts/WhisprMinter.sol:WhisprMinter",
        "label": "thornUSD",
        "offset": 0,
        "slot": "1",
        "type": "t_address"
      }
    ],
    "types": {
      "t_address": {
        "encoding": "inplace",
        "label": "address",
        "numberOfBytes": "20"
      }
    }
  }
}