{
  "address": "0x75e3E9c41295d3C7106C51D389941ec71FbF20F5",
  "abi": [
    {
      "inputs": [],
      "name": "AccessControlBadConfirmation",
      "type": "error"
    },
    {
      "inputs": [
        {
          "internalType": "address",
          "name": "account",
          "type": "address"
        },
        {
          "internalType": "bytes32",
          "name": "neededRole",
          "type": "bytes32"
        }
      ],
      "name": "AccessControlUnauthorizedAccount",
      "type": "error"
    },
    {
      "inputs": [],
      "name": "InvalidInitialization",
      "type": "error"
    },
    {
      "inputs": [],
      "name": "NotInitializing",
      "type": "error"
    },
    {
      "anonymous": false,
      "inputs": [
        {
          "indexed": true,
          "internalType": "address",
          "name": "token",
          "type": "address"
        },
        {
          "indexed": false,
          "internalType": "uint256",
          "name": "amountOut",
          "type": "uint256"
        },
        {
          "indexed": true,
          "internalType": "uint256",
          "name": "depositId",
          "type": "uint256"
        },
        {
          "indexed": false,
          "internalType": "bytes32",
          "name": "destChainId",
          "type": "bytes32"
        },
        {
          "indexed": false,
          "internalType": "bytes",
          "name": "tokenDestChain",
          "type": "bytes"
        },
        {
          "indexed": false,
          "internalType": "bytes",
          "name": "receiver",
          "type": "bytes"
        },
        {
          "indexed": false,
          "internalType": "address",
          "name": "refundAddress",
          "type": "address"
        }
      ],
      "name": "BridgeSuccess",
      "type": "event"
    },
    {
      "anonymous": false,
      "inputs": [
        {
          "indexed": false,
          "internalType": "uint64",
          "name": "version",
          "type": "uint64"
        }
      ],
      "name": "Initialized",
      "type": "event"
    },
    {
      "anonymous": false,
      "inputs": [
        {
          "indexed": true,
          "internalType": "bytes32",
          "name": "role",
          "type": "bytes32"
        },
        {
          "indexed": true,
          "internalType": "bytes32",
          "name": "previousAdminRole",
          "type": "bytes32"
        },
        {
          "indexed": true,
          "internalType": "bytes32",
          "name": "newAdminRole",
          "type": "bytes32"
        }
      ],
      "name": "RoleAdminChanged",
      "type": "event"
    },
    {
      "anonymous": false,
      "inputs": [
        {
          "indexed": true,
          "internalType": "bytes32",
          "name": "role",
          "type": "bytes32"
        },
        {
          "indexed": true,
          "internalType": "address",
          "name": "account",
          "type": "address"
        },
        {
          "indexed": true,
          "internalType": "address",
          "name": "sender",
          "type": "address"
        }
      ],
      "name": "RoleGranted",
      "type": "event"
    },
    {
      "anonymous": false,
      "inputs": [
        {
          "indexed": true,
          "internalType": "bytes32",
          "name": "role",
          "type": "bytes32"
        },
        {
          "indexed": true,
          "internalType": "address",
          "name": "account",
          "type": "address"
        },
        {
          "indexed": true,
          "internalType": "address",
          "name": "sender",
          "type": "address"
        }
      ],
      "name": "RoleRevoked",
      "type": "event"
    },
    {
      "anonymous": false,
      "inputs": [
        {
          "indexed": true,
          "internalType": "address",
          "name": "sender",
          "type": "address"
        },
        {
          "indexed": false,
          "internalType": "uint256",
          "name": "timestamp",
          "type": "uint256"
        }
      ],
      "name": "TestnetEvent",
      "type": "event"
    },
    {
      "inputs": [],
      "name": "DEFAULT_ADMIN_ROLE",
      "outputs": [
        {
          "internalType": "bytes32",
          "name": "",
          "type": "bytes32"
        }
      ],
      "stateMutability": "view",
      "type": "function"
    },
    {
      "inputs": [],
      "name": "VERSION",
      "outputs": [
        {
          "internalType": "string",
          "name": "",
          "type": "string"
        }
      ],
      "stateMutability": "view",
      "type": "function"
    },
    {
      "inputs": [],
      "name": "assetForwarder",
      "outputs": [
        {
          "internalType": "address",
          "name": "",
          "type": "address"
        }
      ],
      "stateMutability": "view",
      "type": "function"
    },
    {
      "inputs": [
        {
          "components": [
            {
              "internalType": "address",
              "name": "owner",
              "type": "address"
            },
            {
              "internalType": "address",
              "name": "spender",
              "type": "address"
            },
            {
              "internalType": "uint256",
              "name": "amount",
              "type": "uint256"
            },
            {
              "internalType": "uint256",
              "name": "nonce",
              "type": "uint256"
            },
            {
              "internalType": "uint256",
              "name": "validAfter",
              "type": "uint256"
            },
            {
              "internalType": "uint256",
              "name": "validUntil",
              "type": "uint256"
            },
            {
              "components": [
                {
                  "internalType": "bytes32",
                  "name": "r",
                  "type": "bytes32"
                },
                {
                  "internalType": "bytes32",
                  "name": "s",
                  "type": "bytes32"
                },
                {
                  "internalType": "uint256",
                  "name": "v",
                  "type": "uint256"
                }
              ],
              "internalType": "struct IWhisprERC20.SignatureRSV",
              "name": "rsv",
              "type": "tuple"
            }
          ],
          "internalType": "struct IWhisprERC20.ApproveData",
          "name": "approveData",
          "type": "tuple"
        },
        {
          "internalType": "uint256",
          "name": "amount",
          "type": "uint256"
        },
        {
          "internalType": "address",
          "name": "tokenOut",
          "type": "address"
        },
        {
          "internalType": "uint256",
          "name": "amountOutMin",
          "type": "uint256"
        },
        {
          "internalType": "address[]",
          "name": "path",
          "type": "address[]"
        },
        {
          "internalType": "uint256[]",
          "name": "flags",
          "type": "uint256[]"
        },
        {
          "components": [
            {
              "internalType": "uint256",
              "name": "partnerId",
              "type": "uint256"
            },
            {
              "internalType": "uint256",
              "name": "destAmount",
              "type": "uint256"
            },
            {
              "internalType": "address",
              "name": "refunder",
              "type": "address"
            },
            {
              "internalType": "bytes32",
              "name": "destChainId",
              "type": "bytes32"
            },
            {
              "internalType": "bytes",
              "name": "tokenDestChain",
              "type": "bytes"
            },
            {
              "internalType": "bytes",
              "name": "receiver",
              "type": "bytes"
            }
          ],
          "internalType": "struct WhisprBridge.BridgeData",
          "name": "bridgeData",
          "type": "tuple"
        }
      ],
      "name": "bridge",
      "outputs": [],
      "stateMutability": "nonpayable",
      "type": "function"
    },
    {
      "inputs": [
        {
          "internalType": "bytes32",
          "name": "peerPublicKey",
          "type": "bytes32"
        },
        {
          "internalType": "bytes32",
          "name": "nonce",
          "type": "bytes32"
        },
        {
          "internalType": "bytes",
          "name": "data",
          "type": "bytes"
        },
        {
          "internalType": "uint256",
          "name": "amount",
          "type": "uint256"
        },
        {
          "internalType": "address",
          "name": "tokenOut",
          "type": "address"
        },
        {
          "internalType": "uint256",
          "name": "amountOutMin",
          "type": "uint256"
        },
        {
          "internalType": "address[]",
          "name": "path",
          "type": "address[]"
        },
        {
          "internalType": "uint256[]",
          "name": "flags",
          "type": "uint256[]"
        },
        {
          "components": [
            {
              "internalType": "uint256",
              "name": "partnerId",
              "type": "uint256"
            },
            {
              "internalType": "uint256",
              "name": "destAmount",
              "type": "uint256"
            },
            {
              "internalType": "address",
              "name": "refunder",
              "type": "address"
            },
            {
              "internalType": "bytes32",
              "name": "destChainId",
              "type": "bytes32"
            },
            {
              "internalType": "bytes",
              "name": "tokenDestChain",
              "type": "bytes"
            },
            {
              "internalType": "bytes",
              "name": "receiver",
              "type": "bytes"
            }
          ],
          "internalType": "struct WhisprBridge.BridgeData",
          "name": "bridgeData",
          "type": "tuple"
        }
      ],
      "name": "bridgeEncrypt",
      "outputs": [],
      "stateMutability": "nonpayable",
      "type": "function"
    },
    {
      "inputs": [],
      "name": "clearingFee",
      "outputs": [
        {
          "internalType": "uint256",
          "name": "",
          "type": "uint256"
        }
      ],
      "stateMutability": "view",
      "type": "function"
    },
    {
      "inputs": [],
      "name": "getPublicKey",
      "outputs": [
        {
          "internalType": "bytes32",
          "name": "",
          "type": "bytes32"
        }
      ],
      "stateMutability": "view",
      "type": "function"
    },
    {
      "inputs": [
        {
          "internalType": "bytes32",
          "name": "role",
          "type": "bytes32"
        }
      ],
      "name": "getRoleAdmin",
      "outputs": [
        {
          "internalType": "bytes32",
          "name": "",
          "type": "bytes32"
        }
      ],
      "stateMutability": "view",
      "type": "function"
    },
    {
      "inputs": [
        {
          "internalType": "bytes32",
          "name": "role",
          "type": "bytes32"
        },
        {
          "internalType": "address",
          "name": "account",
          "type": "address"
        }
      ],
      "name": "grantRole",
      "outputs": [],
      "stateMutability": "nonpayable",
      "type": "function"
    },
    {
      "inputs": [
        {
          "internalType": "bytes32",
          "name": "role",
          "type": "bytes32"
        },
        {
          "internalType": "address",
          "name": "account",
          "type": "address"
        }
      ],
      "name": "hasRole",
      "outputs": [
        {
          "internalType": "bool",
          "name": "",
          "type": "bool"
        }
      ],
      "stateMutability": "view",
      "type": "function"
    },
    {
      "inputs": [],
      "name": "init2e2Proxy",
      "outputs": [],
      "stateMutability": "nonpayable",
      "type": "function"
    },
    {
      "inputs": [
        {
          "internalType": "address",
          "name": "_whisprUSD",
          "type": "address"
        },
        {
          "internalType": "address",
          "name": "_whisprUSDMinter",
          "type": "address"
        },
        {
          "internalType": "address",
          "name": "_thornUSD",
          "type": "address"
        },
        {
          "internalType": "address",
          "name": "_stableSwapRouter",
          "type": "address"
        },
        {
          "internalType": "address",
          "name": "_assetForwarder",
          "type": "address"
        },
        {
          "internalType": "address",
          "name": "_refundWalletEntrypoint",
          "type": "address"
        }
      ],
      "name": "initialize",
      "outputs": [],
      "stateMutability": "nonpayable",
      "type": "function"
    },
    {
      "inputs": [],
      "name": "oracle",
      "outputs": [
        {
          "internalType": "address",
          "name": "",
          "type": "address"
        }
      ],
      "stateMutability": "view",
      "type": "function"
    },
    {
      "inputs": [],
      "name": "refundWalletEntrypoint",
      "outputs": [
        {
          "internalType": "address",
          "name": "",
          "type": "address"
        }
      ],
      "stateMutability": "view",
      "type": "function"
    },
    {
      "inputs": [
        {
          "internalType": "bytes32",
          "name": "role",
          "type": "bytes32"
        },
        {
          "internalType": "address",
          "name": "callerConfirmation",
          "type": "address"
        }
      ],
      "name": "renounceRole",
      "outputs": [],
      "stateMutability": "nonpayable",
      "type": "function"
    },
    {
      "inputs": [
        {
          "internalType": "bytes32",
          "name": "role",
          "type": "bytes32"
        },
        {
          "internalType": "address",
          "name": "account",
          "type": "address"
        }
      ],
      "name": "revokeRole",
      "outputs": [],
      "stateMutability": "nonpayable",
      "type": "function"
    },
    {
      "inputs": [],
      "name": "stableSwapRouter",
      "outputs": [
        {
          "internalType": "address",
          "name": "",
          "type": "address"
        }
      ],
      "stateMutability": "view",
      "type": "function"
    },
    {
      "inputs": [
        {
          "internalType": "bytes4",
          "name": "interfaceId",
          "type": "bytes4"
        }
      ],
      "name": "supportsInterface",
      "outputs": [
        {
          "internalType": "bool",
          "name": "",
          "type": "bool"
        }
      ],
      "stateMutability": "view",
      "type": "function"
    },
    {
      "inputs": [],
      "name": "thornUSD",
      "outputs": [
        {
          "internalType": "address",
          "name": "",
          "type": "address"
        }
      ],
      "stateMutability": "view",
      "type": "function"
    },
    {
      "inputs": [
        {
          "internalType": "address",
          "name": "_refundWalletEntrypoint",
          "type": "address"
        }
      ],
      "name": "update",
      "outputs": [],
      "stateMutability": "nonpayable",
      "type": "function"
    },
    {
      "inputs": [],
      "name": "whisprUSD",
      "outputs": [
        {
          "internalType": "address",
          "name": "",
          "type": "address"
        }
      ],
      "stateMutability": "view",
      "type": "function"
    },
    {
      "inputs": [],
      "name": "whisprUSDMinter",
      "outputs": [
        {
          "internalType": "address",
          "name": "",
          "type": "address"
        }
      ],
      "stateMutability": "view",
      "type": "function"
    }
  ],
  "transactionHash": "0x5da62e12642bec576353d71a582b23c9b8bd961d58fd1853dffc5941a1990104",
  "args": [],
  "numDeployments": 1,
  "solcInputHash": "d732905b6b0f2db3fea00bb480a125de",
  "bytecode": "0x6080806040523461001657611876908161001c8239f35b600080fdfe60806040908082526004918236101561001757600080fd5b600091823560e01c90816301ffc9a714610cbd575080630443916c14610c9f57806305fefe8b14610b855780631c1b877214610b1b578063248a9ca314610ae35780632e33445214610ac55780632f2ff15d14610a9b57806336568abe14610a5657806349990b7814610a2e5780637dc0d1d014610a065780637fe68917146109de57806386f20415146109b657806391d1485414610962578063a217fddf14610948578063a29f1b5a1461066f578063a6c88b5914610430578063b97c895014610409578063cc2a9a5b14610228578063d547741f146101d7578063f20ec1cb146101af578063f3bb6e2d146101875763ffa1ad741461011757600080fd5b34610183578160031936011261018357805191818301908382106001600160401b03831117610170575061016c935081526005825264302e302e3160d81b602083015251918291602083526020830190610e23565b0390f35b634e487b7160e01b815260418552602490fd5b5080fd5b503461018357816003193601126101835760025490516001600160a01b039091168152602090f35b503461018357816003193601126101835760095490516001600160a01b039091168152602090f35b50829034610224578060031936011261022457610220913561021b60016101fc610dac565b93838752600080516020611821833981519152602052862001546115cc565b61174a565b5080f35b8280fd5b5082346102245760c036600319011261022457610243610d91565b61024b610dac565b916001600160a01b0360443581811692908390036104055760643582811680910361040157610278610dc2565b9060a435948486168096036103fd577ff0c57e16840df040f15088dc2f81fe391c3923bec73e23a9662efc9c229c6a009788549760ff898c1c1615986001600160401b038116801590816103f5575b60011490816103eb575b1590816103e2575b506103d25767ffffffffffffffff1981166001178b55896103b3575b5060ff8a548c1c16156103a35786949392918c86926103133361161d565b506bffffffffffffffffffffffff60a01b998a9116915416178d551686600154161760015585600254161760025584600354161760035516828254161790556009541617600955610362578280f35b805468ff00000000000000001916905551600181527fc7f505b2f371ae2175ee4913f4499e1f2633a7b5936321eed1cdaeb6115181d290602090a181808280f35b8a51631afcd79f60e31b81528690fd5b68ffffffffffffffffff191668010000000000000001178a558c6102f5565b8b5163f92ee8a960e01b81528790fd5b9050158e6102d9565b303b1591506102d1565b8b91506102c7565b8980fd5b8780fd5b8680fd5b5034610183578160031936011261018357905490516001600160a01b039091168152602090f35b508290346102245782600319360112610224578280526020916000805160206118218339815191528352818420338552835261047160ff8386205416611580565b815142848201524160601b8382015243605482015260548152608081018181106001600160401b0382111761065c57859181839286526104d760a08301928884528760c08201526104c560e0820182610e23565b03609f1981018352607f190182610d70565b51906001600160981b015afa926104ec6117cd565b93156106265783511561061357808401601f60fb1b815116861a8551156105ed5781538451601f101561060057603f8501607f60f81b815116871a8651601f10156105da5781538551601f10156105ed57600160fe1b60ff60f81b82511617871a908651601f10156105da57918792918392538651906008600160981b015afa926105756117cd565b93156105995750505061058a610590916117fd565b916117fd565b60065560055580f35b5162461bcd60e51b815291820152601960248201527f67656e206375727665323535313920706b3a206661696c656400000000000000604482015260649150fd5b634e487b7160e01b885260328552602488fd5b634e487b7160e01b875260328452602487fd5b634e487b7160e01b865260328352602486fd5b634e487b7160e01b855260328252602485fd5b606492519162461bcd60e51b835282015260136024820152721c985b991bdb509e5d195cce8819985a5b1959606a1b6044820152fd5b634e487b7160e01b865260418352602486fd5b5091346101835760031992610120368501811361094457602494604435926001600160401b039283851161040557366023860112156104055784860135928484116104015736898588010111610401576106c7610dc2565b9660c4358681116103fd576106df9036908301610dd8565b95909460e435888111610940576106f99036908501610dd8565b999098610104359581871161093c5760c09087360301126108b257600654938d80855196602097888101918a3583528882015287815261073881610d42565b51906002600160981b015afa61074c6117cd565b90156108fa578f9392918f91908061076489936117fd565b9661076e82610e08565b9661077b8a519889610d70565b828852018387013784010152835190858201908111828210176108e857918e9f9e93918f906107f191869588528582526107e56107d289519586938c8501988952358b8501526080606085015260a0840190610e23565b601f199384848303016080850152610e23565b03908101835282610d70565b51906004600160981b015afa9a6108066117cd565b9b156108b657508a8051810103948086126108b25760608c9660c084519861082d8a610d11565b610838878201610e7b565b8a52610845868201610e7b565b878b015283810151868b01526080810151848b015260a081015160808b0152015160a089015260bf1901126108b2576108af9b82519361088485610d42565b60e082015185526101008201519085015201519082015260c0840152019560a4359160643590610ee2565b80f35b8c80fd5b60649392600f92519362461bcd60e51b85528401528201526e191958dc9e5c1d0e8819985a5b1959608a1b6044820152fd5b634e487b7160e01b8f52604187528f8ffd5b8f87601a6064928989519362461bcd60e51b85528401528201527f64657269766553796d6d65747269634b65793a206661696c65640000000000006044820152fd5b8d80fd5b8b80fd5b8380fd5b503461018357816003193601126101835751908152602090f35b5082346102245781600319360112610224578160209360ff92610983610dac565b9035825260008051602061182183398151915286528282206001600160a01b039091168252855220549151911615158152f35b503461018357816003193601126101835760035490516001600160a01b039091168152602090f35b5082346102245782600319360112610224575490516001600160a01b03909116815260209150f35b503461018357816003193601126101835760075490516001600160a01b039091168152602090f35b503461018357816003193601126101835760015490516001600160a01b039091168152602090f35b5034610183578060031936011261018357610a6f610dac565b90336001600160a01b03831603610a8c575061022091923561174a565b5163334bd91960e11b81528390fd5b508290346102245780600319360112610224576102209135610ac060016101fc610dac565b6116bd565b50346101835781600319360112610183576020906005549051908152f35b508234610224576020366003190112610224578160209360019235815260008051602061182183398151915285522001549051908152f35b503461018357602036600319011261018357610b6260ff610b3a610d91565b9284805260008051602061182183398151915260205280852033865260205284205416611580565b60018060a01b03166bffffffffffffffffffffffff60a01b600954161760095580f35b5082903461022457600319903682016101e08112610c9b576101201361094457805190610bb182610d11565b610bb9610d91565b8252610bc3610dac565b6020830152604435818301526064356060830152608435608083015260a43560a0830152606060c319360112610c9b57805190610bff82610d42565b60c435825260e4356020830152610104359082015260c082015261014435916001600160a01b0383168303610c9b576001600160401b03916101843583811161040557610c4f9036908701610dd8565b916101a435858111610c9757610c689036908901610dd8565b9590946101c4359182116103fd5760c0908236030112610c97576108af97019561016435916101243590610ee2565b8880fd5b8480fd5b50346101835781600319360112610183576020906008549051908152f35b83908534610224576020366003190112610224573563ffffffff60e01b81168091036102245760209250637965db0b60e01b8114908115610d00575b5015158152f35b6301ffc9a760e01b14905083610cf9565b60e081019081106001600160401b03821117610d2c57604052565b634e487b7160e01b600052604160045260246000fd5b606081019081106001600160401b03821117610d2c57604052565b6001600160401b038111610d2c57604052565b90601f801991011681019081106001600160401b03821117610d2c57604052565b600435906001600160a01b0382168203610da757565b600080fd5b602435906001600160a01b0382168203610da757565b608435906001600160a01b0382168203610da757565b9181601f84011215610da7578235916001600160401b038311610da7576020808501948460051b010111610da757565b6001600160401b038111610d2c57601f01601f191660200190565b919082519283825260005b848110610e4f575050826000602080949584010152601f8019910116010190565b602081830181015184830182015201610e2e565b90816020910312610da757518015158103610da75790565b51906001600160a01b0382168203610da757565b903590601e1981360301821215610da757018035906001600160401b038211610da757602001918136038313610da757565b908060209392818452848401376000828201840152601f01601f1916010190565b9897959690949193929660009360018060a01b03855416803b156114c3578560c06101248e8360409586519687958694631e79701b60e31b865260018060a01b038151166004870152602081015160018060a01b03166024870152828101516044870152606081015160648701526080810151608487015260a081015160a48701520151805160c4860152602081015160e486015201516101048401525af180156115105761156d575b5084548b516040516323b872dd60e01b81526001600160a01b039182166004820152306024820152604481018a905291602091839160649183918b91165af180156115105761154e575b50845460015460405163095ea7b360e01b81526001600160a01b039182166004820152602481018a905291602091839160449183918b91165af180156115105761152f575b506001546001600160a01b0316803b156114c357858091604460405180948193636a6ca31d60e11b83528d60048401523060248401525af180156115105790869161151b575b505060025460035460405163095ea7b360e01b81526001600160a01b039182166004820152602481018a905291602091839160449183918b91165af18015611510576114f1575b5060035460405163b455423160e01b815260a0600482015260a48101869052946001600160a01b039091169360c4860192909187905b8082106114c7575050508482036003190160248601528082526001600160fb1b0381116114c3578560208680958297958e839660051b8093868401378d60448501526064840152306084840152010301925af180156113e457611498575b5060018060a01b0360045416946040519563de35f5cb60e01b8752602087600481845afa968715611458578397611463575b5060405163095ea7b360e01b81526001600160a01b0390911660048201526024810182905260208180604481010381866001600160a01b0389165af1801561145857968098996020926112009961142b575b506009549051604051633502eadb60e21b81526001600160a01b039182166004820152602481019390935291988992909116908290869082906044820190565b03925af19586156113e45782966113ef575b50604051908160c08101106001600160401b0360c084011117610d2c5760c082016040528535825260208201526020850135604082015260018060a01b038316606082015260018060a01b0386166080820152606085013560a082015260018060a01b03600454166112876080870187610e8f565b91909261129760a0890189610e8f565b833b15610405576040805163f452ed4d60e01b8152845160048201526020850151602482015290840151604482015260608401516001600160a01b039081166064830152608085015116608482015260a09093015160a484015261010060c48401529194869486949385938793859361132c939161131a91610104870191610ec1565b8481036003190160e486015291610ec1565b03925af180156113e4576113cd575b50509082916113b561137160807fc182ae3c899862a5578494c1c7ac7c64fbfda8d5dc7b882bee1aba19e27242bb960185610e8f565b906113a761138260a0880188610e8f565b9290936060604051998a998a520135602089015260a0604089015260a0880191610ec1565b918583036060870152610ec1565b6001600160a01b0395861660808401529416930390a3565b6113d78291610d5d565b6113e1578061133b565b80fd5b6040513d84823e3d90fd5b9095506020813d602011611423575b8161140b60209383610d70565b810103126101835761141c90610e7b565b9438611212565b3d91506113fe565b61144a90843d8611611451575b6114428183610d70565b810190610e63565b50386111c0565b503d611438565b6040513d85823e3d90fd5b9096506020813d602011611490575b8161147f60209383610d70565b81010312610da7575195602061116e565b3d9150611472565b602090813d83116114bc575b6114ae8183610d70565b81010312610da7573861113c565b503d6114a4565b8580fd5b90919384359060018060a01b038216809203610da7576020816001938293520195019201906110de565b6115099060203d602011611451576114428183610d70565b50386110a8565b6040513d88823e3d90fd5b61152490610d5d565b610c9b578438611061565b6115479060203d602011611451576114428183610d70565b503861101b565b6115669060203d602011611451576114428183610d70565b5038610fd6565b61157990959195610d5d565b9338610f8c565b1561158757565b60405162461bcd60e51b815260206004820152601760248201527f5768697370724272696467653a206e6f742061646d696e0000000000000000006044820152606490fd5b8060005260008051602061182183398151915260205260406000203360005260205260ff60406000205416156115ff5750565b6044906040519063e2517d3f60e01b82523360048301526024820152fd5b6001600160a01b031660008181527fb7db2dd08fcb62d0c9e08c51941cae53c267786a0b75803fb7960902fc8ef97d60205260408120549091906000805160206118218339815191529060ff166116b8578280526020526040822081835260205260408220600160ff1982541617905533917f2f8788117e7eff1d82e926ec794901d17c78024a50270940304540a733656f0d8180a4600190565b505090565b9060009180835260008051602061182183398151915280602052604084209260018060a01b03169283855260205260ff60408520541615600014611744578184526020526040832082845260205260408320600160ff198254161790557f2f8788117e7eff1d82e926ec794901d17c78024a50270940304540a733656f0d339380a4600190565b50505090565b9060009180835260008051602061182183398151915280602052604084209260018060a01b03169283855260205260ff60408520541660001461174457818452602052604083208284526020526040832060ff1981541690557ff6391f5c32d9c69d2a47ea670b442974b53935d1edc7fd64eb21e047a839171b339380a4600190565b3d156117f8573d906117de82610e08565b916117ec6040519384610d70565b82523d6000602084013e565b606090565b602081519101519060208110611811575090565b6000199060200360031b1b169056fe02dd7bc7dec4dceedda775e58dd541e08a116c6c53815c0bd028192f7b626800a26469706673582212207828aa3b9bd4749c28089a07a75a1de4c85797ace6029874200769a570c07f1f64736f6c63430008180033",
  "devdoc": {
    "errors": {
      "AccessControlBadConfirmation()": [
        {
          "details": "The caller of a function is not the expected one. NOTE: Don't confuse with {AccessControlUnauthorizedAccount}."
        }
      ],
      "AccessControlUnauthorizedAccount(address,bytes32)": [
        {
          "details": "The `account` is missing a role."
        }
      ],
      "InvalidInitialization()": [
        {
          "details": "The contract is already initialized."
        }
      ],
      "NotInitializing()": [
        {
          "details": "The contract is not initializing."
        }
      ]
    },
    "events": {
      "Initialized(uint64)": {
        "details": "Triggered when the contract has been initialized or reinitialized."
      },
      "RoleAdminChanged(bytes32,bytes32,bytes32)": {
        "details": "Emitted when `newAdminRole` is set as ``role``'s admin role, replacing `previousAdminRole` `DEFAULT_ADMIN_ROLE` is the starting admin for all roles, despite {RoleAdminChanged} not being emitted signaling this."
      },
      "RoleGranted(bytes32,address,address)": {
        "details": "Emitted when `account` is granted `role`. `sender` is the account that originated the contract call. This account bears the admin role (for the granted role). Expected in cases where the role was granted using the internal {AccessControl-_grantRole}."
      },
      "RoleRevoked(bytes32,address,address)": {
        "details": "Emitted when `account` is revoked `role`. `sender` is the account that originated the contract call:   - if using `revokeRole`, it is the admin role bearer   - if using `renounceRole`, it is the role bearer (i.e. `account`)"
      }
    },
    "kind": "dev",
    "methods": {
      "getRoleAdmin(bytes32)": {
        "details": "Returns the admin role that controls `role`. See {grantRole} and {revokeRole}. To change a role's admin, use {_setRoleAdmin}."
      },
      "grantRole(bytes32,address)": {
        "details": "Grants `role` to `account`. If `account` had not been already granted `role`, emits a {RoleGranted} event. Requirements: - the caller must have ``role``'s admin role. May emit a {RoleGranted} event."
      },
      "hasRole(bytes32,address)": {
        "details": "Returns `true` if `account` has been granted `role`."
      },
      "renounceRole(bytes32,address)": {
        "details": "Revokes `role` from the calling account. Roles are often managed via {grantRole} and {revokeRole}: this function's purpose is to provide a mechanism for accounts to lose their privileges if they are compromised (such as when a trusted device is misplaced). If the calling account had been revoked `role`, emits a {RoleRevoked} event. Requirements: - the caller must be `callerConfirmation`. May emit a {RoleRevoked} event."
      },
      "revokeRole(bytes32,address)": {
        "details": "Revokes `role` from `account`. If `account` had been granted `role`, emits a {RoleRevoked} event. Requirements: - the caller must have ``role``'s admin role. May emit a {RoleRevoked} event."
      },
      "supportsInterface(bytes4)": {
        "details": "See {IERC165-supportsInterface}."
      }
    },
    "version": 1
  },
  "userdoc": {
    "kind": "user",
    "methods": {},
    "version": 1
  },
  "storageLayout": {
    "storage": [
      {
        "astId": 6934,
        "contract": "contracts/WhisprBridge.sol:WhisprBridge",
        "label": "whisprUSD",
        "offset": 0,
        "slot": "0",
        "type": "t_address"
      },
      {
        "astId": 6936,
        "contract": "contracts/WhisprBridge.sol:WhisprBridge",
        "label": "whisprUSDMinter",
        "offset": 0,
        "slot": "1",
        "type": "t_address"
      },
      {
        "astId": 6938,
        "contract": "contracts/WhisprBridge.sol:WhisprBridge",
        "label": "thornUSD",
        "offset": 0,
        "slot": "2",
        "type": "t_address"
      },
      {
        "astId": 6940,
        "contract": "contracts/WhisprBridge.sol:WhisprBridge",
        "label": "stableSwapRouter",
        "offset": 0,
        "slot": "3",
        "type": "t_address"
      },
      {
        "astId": 6942,
        "contract": "contracts/WhisprBridge.sol:WhisprBridge",
        "label": "assetForwarder",
        "offset": 0,
        "slot": "4",
        "type": "t_address"
      },
      {
        "astId": 6945,
        "contract": "contracts/WhisprBridge.sol:WhisprBridge",
        "label": "publicKey",
        "offset": 0,
        "slot": "5",
        "type": "t_userDefinedValueType(Curve25519PublicKey)43"
      },
      {
        "astId": 6948,
        "contract": "contracts/WhisprBridge.sol:WhisprBridge",
        "label": "privateKey",
        "offset": 0,
        "slot": "6",
        "type": "t_userDefinedValueType(Curve25519SecretKey)45"
      },
      {
        "astId": 6950,
        "contract": "contracts/WhisprBridge.sol:WhisprBridge",
        "label": "oracle",
        "offset": 0,
        "slot": "7",
        "type": "t_address"
      },
      {
        "astId": 6952,
        "contract": "contracts/WhisprBridge.sol:WhisprBridge",
        "label": "clearingFee",
        "offset": 0,
        "slot": "8",
        "type": "t_uint256"
      },
      {
        "astId": 6954,
        "contract": "contracts/WhisprBridge.sol:WhisprBridge",
        "label": "refundWalletEntrypoint",
        "offset": 0,
        "slot": "9",
        "type": "t_address"
      }
    ],
    "types": {
      "t_address": {
        "encoding": "inplace",
        "label": "address",
        "numberOfBytes": "20"
      },
      "t_uint256": {
        "encoding": "inplace",
        "label": "uint256",
        "numberOfBytes": "32"
      },
      "t_userDefinedValueType(Curve25519PublicKey)43": {
        "encoding": "inplace",
        "label": "Sapphire.Curve25519PublicKey",
        "numberOfBytes": "32"
      },
      "t_userDefinedValueType(Curve25519SecretKey)45": {
        "encoding": "inplace",
        "label": "Sapphire.Curve25519SecretKey",
        "numberOfBytes": "32"
      }
    }
  }
}